:020000040800F2
:1000000000280020C91C0008591C00085F1C0008BB
:10001000651C00086B1C0008711C00080000000033
:10002000000000000000000000000000771C000835
:10003000831C0008000000008F1C00089B1C0008A7
:10004000111D0008111D0008111D0008111D0008D8
:10005000111D0008111D0008111D0008111D0008C8
:10006000111D0008111D0008111D0008111D0008B8
:10007000111D0008111D0008111D0008111D0008A8
:10008000111D0008111D0008111D0008111D000898
:10009000111D0008111D0008111D0008111D000888
:1000A000111D0008111D0008111D0008111D000878
:1000B000A91C0008111D000800000000111D000807
:1000C000111D00080000000000000000111D0008C4
:1000D00000000000111D0008111D000800000000B4
:1000E000111D0008111D0008111D0008000000006E
:1000F0000000000000000000000000000000000000
:0C01000000000000000000005FF808F1A3
:10010C0010B5054C237833B9044B13B10448AFF345
:10011C0000800123237010BD780000200000000037
:10012C004033000808B5034B1BB103490348AFF338
:10013C00008008BD000000007C0000204033000857
:10014C0080B400AF064B1B68012B04D1044B00227A
:10015C001A60012300E000231846BD4680BC70479E
:10016C009400002080B400AF034B01221A6000BF42
:10017C00BD4680BC704700BF9400002080B500AF26
:10018C00224B1B68224A1360224B1B681F4A1360C8
:10019C004FF40061204802F0A1F803461A461D4BAB
:1001AC001A601B4B1A68194B1B689A422BD1174BC0
:1001BC001A68184B1B689A4225D1184B1A68154BB4
:1001CC001B689A420DD0134B1B68144A1360114BD9
:1001DC001B68002B17D1124BC8221A60FFF7C2FF05
:1001EC0011E00F4B1B68013B0D4A13600C4B1B6855
:1001FC00002B08D1074B1B68002B01D1FFF7B2FF76
:10020C00074BC8221A6000BF80BD00BF040000204D
:10021C000000002008000020000801400C00002015
:10022C001000002080B400AF064B1B68012B04D1DA
:10023C00044B00221A60012300E000231846BD463F
:10024C0080BC70479800002080B400AF034B0122A3
:10025C001A6000BFBD4680BC704700BF98000020EC
:10026C0080B500AF224B1B68224A1360224B1B68DF
:10027C001F4A13604FF48051204802F02FF80346B8
:10028C001A461D4B1A601B4B1A68194B1B689A4275
:10029C002BD1174B1A68184B1B689A4225D1184B57
:1002AC001A68154B1B689A420DD0134B1B68144AE5
:1002BC001360114B1B68002B17D1124BC8221A600C
:1002CC00FFF7C2FF11E00F4B1B68013B0D4A136097
:1002DC000C4B1B68002B08D1074B1B68002B01D162
:1002EC00FFF7B2FF074BC8221A6000BF80BD00BFEA
:1002FC0018000020140000201C0000200008014001
:10030C00200000202400002080B400AF064B1B68A6
:10031C00012B04D1044B00221A60012300E00023BE
:10032C001846BD4680BC70479C00002080B400AFCE
:10033C00034B01221A6000BFBD4680BC704700BF52
:10034C009C00002080B500AF224B1B68224A136032
:10035C00224B1B681F4A13604FF40051204801F0D8
:10036C00BDFF03461A461D4B1A601B4B1A68194BEE
:10037C001B689A422BD1174B1A68184B1B689A4270
:10038C0025D1184B1A68154B1B689A420DD0134B8C
:10039C001B68144A1360114B1B68002B17D1124BAE
:1003AC00C8221A60FFF7C2FF11E00F4B1B68013B1C
:1003BC000D4A13600C4B1B68002B08D1074B1B68B4
:1003CC00002B01D1FFF7B2FF074BC8221A6000BF08
:1003DC0080BD00BF2C000020280000203000002031
:1003EC0000080140340000203800002080B400AF29
:1003FC00064B1B68012B04D1044B00221A6001230D
:10040C0000E000231846BD4680BC7047A0000020C9
:10041C0080B400AF034B01221A6000BFBD4680BC04
:10042C00704700BFA000002080B500AF244B1B68B4
:10043C00244A1360244B1B68214A13604FF48041FB
:10044C00224801F04BFF03461A461F4B1A601D4B06
:10045C001A681B4B1B689A422FD1194B1A681A4BFE
:10046C001B689A4229D11A4B1A68174B1B689A427F
:10047C000DD0154B1B68164A1360134B1B68002BD1
:10048C001BD1144BC8221A60FFF7C2FF15E0114BA9
:10049C001B68002B04DD0F4B1B68013B0D4A1360DE
:1004AC000C4B1B68002B08D1074B1B68002B01D190
:1004BC00FFF7AEFF074BC8221A6000BF80BD00BF1C
:1004CC00400000203C0000204400002000080140B7
:1004DC00480000204C00002080B500AFFFF74EFE16
:1004EC00FFF7BEFEFFF72EFFFFF79EFF00BF80BD9C
:1004FC0080B500AF934B1B68013B042B00F231829B
:10050C0001A252F823F000BF290500085905000884
:10051C005B060008790700087B08000800F0EEFD78
:10052C00884B02221A60884B1B68642202FB03F37F
:10053C00184601F09FFA322001F0CAFA642001F04B
:10054C00F5FA814B1B68814A136013E201222021CA
:10055C007F4801F0DAFE002240217D4801F0D5FEF3
:10056C00012280217A4801F0D0FE00224FF48071E4
:10057C00774801F0CAFE00224FF40071744801F074
:10058C00C4FE00224FF48061714801F0BEFE6F4B37
:10059C001968704B83FB01239A10CB17D21A1346A0
:1005AC009B0013445B00CA1A6B4B1A60674B1B68A9
:1005BC00684A82FB03129210DB17D31A664A536007
:1005CC00624B1A68654B1B68D118624B83FB012385
:1005DC009A10CB17D21A13469B0013445B00CA1A0D
:1005EC005D4B9A60594B1A685C4B1B681344594A13
:1005FC0082FB03129210DB17D31A574AD360584B65
:10060C001B68012B0ED14F4B03221A60534B1B68F6
:10061C004E4A1360514B1B68642202FB03F31846CD
:10062C0001F028FAFFF78CFD0346012B05D1454B51
:10063C000C221A604B4B01221A60FFF7D7FE0346BF
:10064C00012B40F090813F4B7C221A608BE1012200
:10065C0020213F4801F059FE012240213C4801F085
:10066C0054FE002280213A4801F04FFE00224FF444
:10067C008071374801F049FE00224FF40071344874
:10068C0001F043FE00224FF48061314801F03DFE41
:10069C002E4B19682F4B83FB01239A10CB17D21AC0
:1006AC0013469B0013445B00CA1A2B4B1A60274B52
:1006BC001B68284A82FB03129210DB17D31A264AB6
:1006CC005360224B1968234B83FB01239A10CB17E1
:1006DC00D21A13469B0013445B00CA1A1E4B9A6035
:1006EC001A4B1B681B4A82FB03129210DB17D31A9E
:1006FC00194AD3601A4B1B68012B0ED1114B0422E3
:10070C001A60194B1B68114A13600F4B1B6864224B
:10071C0002FB03F3184601F0ADF9FFF711FD034698
:10072C00012B05D1074B0C221A600E4B01221A60CB
:10073C00FFF75CFE0346012B40F01781014B7C2236
:10074C001A6012E1A400002050000020AC00002030
:10075C0000080140676666665C00002054000020BB
:10076C00C0000020A80000205800002000222021FA
:10077C00814801F0CAFD002240217F4801F0C5FDEF
:10078C00002280217C4801F0C0FD01224FF48071D1
:10079C00794801F0BAFD00224FF40071764801F05F
:1007AC00B4FD01224FF48061734801F0AEFD734B30
:1007BC001968734B83FB01239A10CB17D21A13467B
:1007CC009B0013445B00CA1A6E4B1A606B4B1B6880
:1007DC006B4A82FB03129210DB17D31A694A5360DF
:1007EC00664B1A68684B1B68D11A654B83FB012357
:1007FC009A10CB17D21A13469B0013445B00CA1AEB
:10080C00604B9A605D4B1A685F4B1B68D31A5C4A4D
:10081C0082FB03129210DB17D31A5A4AD3605B4B3C
:10082C001B68012B0ED15A4B05221A60564B1B68C4
:10083C00524A1360544B1B68642202FB03F31846A4
:10084C0001F018F9FFF77CFC0346012B05D1504B46
:10085C000C221A604F4B01221A60FFF7C7FD0346AA
:10086C00012B40F084804A4B7A221A607FE00022F0
:10087C002021414801F049FD002240213E4801F071
:10088C0044FD002280213C4801F03FFD01224FF441
:10089C008071394801F039FD01224FF4007136485E
:1008AC0001F033FD00224FF48061334801F02DFD3F
:1008BC00324B1968324B83FB01239A10CB17D21A97
:1008CC0013469B0013445B00CA1A2E4B1A602B4B29
:1008DC001B682B4A82FB03129210DB17D31A294A8E
:1008EC005360264B1968264B83FB01239A10CB17B8
:1008FC00D21A13469B0013445B00CA1A214B9A6010
:10090C001E4B1B681E4A82FB03129210DB17D31A74
:10091C001C4AD3601D4B1B68012B0ED11C4B0222B1
:10092C001A601D4B1B68154A13601B4B1B68642215
:10093C0002FB03F3184601F09DF8FFF701FC034698
:10094C00012B05D1124B0C221A60124B01221A609A
:10095C00FFF74CFD0346012B0BD10D4B7A221A608D
:10096C0007E000BF06E000BF04E000BF02E000BFEC
:10097C0000E000BF00BF80BD00080140AC000020BB
:10098C00676666665C00002054000020C0000020F2
:10099C00A4000020A80000205000002080B582B0E8
:1009AC0000AF786001220221194801F0AEFC01224F
:1009BC000421174801F0A9FC7B68002B03D07B684D
:1009CC00012B10D01FE000220221114801F09DFCE8
:1009DC00104B1B68184600F0ABFA0E4B5B681846C0
:1009EC0000F016FB0FE000220421094801F08DFCF9
:1009FC00084B9B68184600F09BFA064BDB681846C0
:100A0C0000F006FB00BF00BF0837BD4680BD00BF2D
:100A1C00000801405C00002080B400AF174B19683F
:100A2C00174B83FB01239A10CB17D21A13469B004A
:100A3C0013445B00CA1A134B1A60104B1B68104A04
:100A4C0082FB03129210DB17D31A0E4A53600E4B23
:100A5C0019680B4B83FB01239A10CB17D21A134640
:100A6C009B0013445B00CA1A064B9A60054B00228C
:100A7C00DA6000BFBD4680BC704700BFA8000020F4
:100A8C00676666665C000020A400002080B500AF9D
:100A9C00394B1B687A2B02D07C2B34D069E00022B6
:100AAC002021364801F031FC00228021334801F02E
:100ABC002CFC00224021314801F027FC01224FF48C
:100ACC0080712E4801F021FC01224FF480612B48EB
:100ADC0001F01BFC00224FF40071284801F015FCBA
:100AEC0000F082FBFFF782FC0346012B02D1224B64
:100AFC007C221A60FFF724FB0346012B37D11E4BD7
:100B0C0004221A6033E0012220211C4801F0FDFB75
:100B1C0001228021194801F0F8FB002240211748DE
:100B2C0001F0F3FB00224FF48071144801F0EDFB4F
:100B3C0000224FF48061114801F0E7FB00224FF4D2
:100B4C0000710E4801F0E1FB00F04EFBFFF74EFC8C
:100B5C000346012B02D1084B7A221A60FFF7F0FAF8
:100B6C000346012B05D1044B02221A6001E000BFA1
:100B7C0000E000BF00BF80BDA400002000080140C1
:100B8C0080B588B000AF78600023FB610023BB61A7
:100B9C007B685E2B5DD07B685E2B00F39A807B6854
:100BAC005C2B03D07B685D2B73D092E04E4B1B68A3
:100BBC00012B02D100F06AFB92E04C4B1A684C4BB3
:100BCC001B681344FB61484B1A68FB69D31ABB6161
:100BDC00BB69002B1EDB454B1A68BB691344434AA7
:100BEC001360424B1B68632B75DD404B1B68633BEA
:100BFC00BB603E4B63221A603D4B1A68BB681344C2
:100C0C003B4A13603A4B1B68632B64DD384B632201
:100C1C001A6060E0354B1A68BB691344334A1360A1
:100C2C00324B1B68002B56DA304B1B685B42FB6067
:100C3C002E4B00221A602E4B1A68FB68D31A2C4AD2
:100C4C0013602B4B1B68002B45DA294B00221A60D2
:100C5C0041E0264B1A68264B1B681344224A13604A
:100C6C00214B1B68632B38DD1F4B1B68633B7B617F
:100C7C001D4B63221A601E4B1A687B69D31A1C4ADF
:100C8C0013601B4B1B68002B27DA194B00221A60D0
:100C9C0023E0164B1A68164B1B681344124A136058
:100CAC00114B1B68632B1ADD0F4B1B68633B3B61BD
:100CBC000D4B63221A600D4B1A683B69D31A0B4A11
:100CCC0013600A4B1B68002B09DA084B00221A60D0
:100CDC0005E000BF04E000BF02E000BF00E000BF81
:100CEC0000BF2037BD4680BD5800002050000020BA
:100CFC005400002080B500AF864B1B680E2B5CD0D7
:100D0C000E2B00F3FD800C2B03D00D2B00F0A580D7
:100D1C00F6E0814B1B68012B0BD1642000F0D8FE50
:100D2C0020217E4801F009FB4FF480717B4801F0D3
:100D3C0004FB00224021794801F0E7FA00228021CF
:100D4C00764801F0E2FA00224FF40071734801F08A
:100D5C00DCFA00224FF48061704801F0D6FAFFF7FC
:100D6C005BFEFFF75FFA0346012B0DD16C4B1B6842
:100D7C0001336B4A13606A4B1B68632B02DD684BB3
:100D8C0001221A60FFF748FEFFF7DAF90346012B40
:100D9C0005D1604B0D221A60614B01221A60FFF7DE
:100DAC00B3FA0346012B40F0AD805D4B1B685D4AE6
:100DBC0013605C20FFF7E4FEA4E0574B1B68012B8B
:100DCC000BD1322000F084FE8021544801F0B5FA9A
:100DDC004FF48061514801F0B0FA012220214F48B4
:100DEC0001F093FA002240214C4801F08EFA0122C6
:100DFC004FF48071494801F088FA00224FF40071D9
:100E0C00464801F082FAFFF707FEFFF70BFA03469C
:100E1C00012B0DD1424B1B680133414A1360404BEF
:100E2C001B68632B02DD3E4B01221A60FFF7F4FDB9
:100E3C00FFF786F90346012B02D1364B02221A60CA
:100E4C00FFF762FA0346012B5ED1354B1B68364A1D
:100E5C0013605C20FFF794FE56E02F4B1B68012BB0
:100E6C000BD1322000F034FE40212C4801F065FA01
:100E7C004FF40071294801F060FA01222021274823
:100E8C0001F043FA00228021244801F03EFA0122AD
:100E9C004FF48071214801F038FA00224FF4806140
:100EAC001E4801F032FAFFF7B7FDFFF7BBF9034616
:100EBC00012B0DD11A4B1B680133194A1360184BC7
:100ECC001B68632B02DD164B01221A60FFF7A4FD91
:100EDC00FFF736F90346012B05D10E4B0E221A6093
:100EEC000F4B01221A60FFF70FFA0346012B0DD1AD
:100EFC000B4B1B680D4A13605C20FFF741FE05E0AD
:100F0C0000BF04E000BF02E000BF00E000BF00BF74
:100F1C0080BD00BFA4000020C800002000080140D4
:100F2C00A800002058000020500000205400002091
:100F3C0080B584B000AF78607B68092B60DC324AE6
:100F4C007B6813441B78FB73FB7B03F00103002BC2
:100F5C000CBF01230023DBB21A4601212B4801F000
:100F6C00D4F9FB7B03F00203002B0CBF01230023FD
:100F7C00DBB21A460221254801F0C7F9FB7B03F0CE
:100F8C000403002B0CBF01230023DBB21A460421FF
:100F9C001E4801F0BAF9FB7B03F00803002B0CBFD1
:100FAC0001230023DBB21A460821184801F0ADF9E1
:100FBC00FB7B03F01003002B0CBF01230023DBB2DF
:100FCC001A461021114801F0A0F9FB7B03F0200315
:100FDC00002B0CBF01230023DBB21A4620210B4847
:100FEC0001F093F9FB7B03F04003002B0CBF0123B2
:100FFC000023DBB21A464021044801F086F900E0D8
:10100C0000BF1037BD4680BD58330008000C0140AE
:10101C0080B584B000AF78607B68092B66DC354AFC
:10102C007B6813441B78FB73FB7B03F00103002BE1
:10103C000CBF01230023DBB21A4680212E4801F09D
:10104C0064F9FB7B03F00203002B0CBF012300238C
:10105C00DBB21A464FF48071274801F056F9FB7B3E
:10106C0003F00403002B0CBF01230023DBB21A4650
:10107C004FF40071204801F048F9FB7B03F00803A2
:10108C00002B0CBF01230023DBB21A464FF4806106
:10109C00194801F03AF9FB7B03F01003002B0CBF4D
:1010AC0001230023DBB21A464FF40061124801F011
:1010BC002CF9FB7B03F02003002B0CBF0123002336
:1010CC00DBB21A464FF480510B4801F01EF9FB7B42
:1010DC0003F04003002B0CBF01230023DBB21A46A4
:1010EC004FF40051044801F010F900E000BF103734
:1010FC00BD4680BD58330008000C014080B500AFE0
:10110C0000222021364801F000F901224021344808
:10111C0001F0FBF801228021314801F0F6F80022A1
:10112C004FF480712E4801F0F0F801224FF4007159
:10113C002B4801F0EAF801224FF48061284801F0B5
:10114C00E4F800220121274801F0DFF800220221F7
:10115C00244801F0DAF800220421224801F0D5F8E5
:10116C00002208211F4801F0D0F8002210211D4850
:10117C0001F0CBF8002220211A4801F0C6F8002219
:10118C004021184801F0C1F800228021154801F0D7
:10119C00BCF800224FF48071124801F0B6F800221E
:1011AC004FF400710F4801F0B0F800224FF4806149
:1011BC000C4801F0AAF800224FF40061094801F034
:1011CC00A4F800224FF48051064801F09EF800224A
:1011DC004FF40051034801F098F800BF80BD00BFE8
:1011EC0000080140000C014080B500AF0122012134
:1011FC00254801F08AF801220221234801F085F8E4
:10120C0001220421204801F080F8012208211E4807
:10121C0001F07BF8012210211B4801F076F8012225
:10122C002021194801F071F801224021164801F0E3
:10123C006CF801228021144801F067F801224FF468
:10124C008071114801F061F801224FF400710E48D1
:10125C0001F05BF801224FF480610B4801F055F866
:10126C0001224FF40061084801F04FF801224FF4BD
:10127C008051054801F049F801224FF40051024811
:10128C0001F043F800BF80BD000C014080B400AFFA
:10129C00064B02221A60064B01221A60054B0122F2
:1012AC001A6000BFBD4680BC704700BF58000020CC
:1012BC00500000205400002080B500AF0A4B1B6882
:1012CC00012B0FD11021094801F037F8084B1B688E
:1012DC00002B04DB064B1B68013B054A13606420A2
:1012EC0000F09AFB00BF80BDB80000200008014050
:1012FC00AC00002080B500AF094B1B681846FFF707
:10130C004DFB074B1B680133054A1360044B1B68EC
:10131C00012B02DD024B00221A6000BF80BD00BF12
:10132C00B000002080B500AF00F0EEFC00F05EF8DD
:10133C0000F0E4F800F096F81F4801F043FC1F4B56
:10134C0001221A601E4B00221A601E4B03221A60E7
:10135C001D4B05221A601D4B02221A60642000F0FE
:10136C005BFB00F03FF90A220021194800F052FA09
:10137C0064220021174800F04DFA6422002116481F
:10138C0000F048FA64220021144800F043FA4FF4AC
:10139C007A720021124800F03DFA4FF4FA720021E3
:1013AC00104800F037FA0A2200210F4800F032FAF8
:1013BC0000F0F4FAFCE700BFF8030020A4000020C2
:1013CC00AC000020500000205800002054000020E9
:1013DC00951B0008FD040008990A0008010D00087F
:1013EC00C512000801130008E504000880B590B090
:1013FC0000AF07F1180328220021184601F092FFD4
:10140C003B1D00221A605A609A60DA601A6102234E
:10141C00BB610123BB621023FB6200237B6307F1DA
:10142C001803184600F0A2FF0346002B01D000F071
:10143C00D3F80F237B600023BB600023FB600023E9
:10144C003B6100237B613B1D0021184601F00EFA25
:10145C000346002B01D000F0BFF800BF4037BD465B
:10146C0080BD000080B586B000AF07F108030022F4
:10147C001A605A609A60DA603B4600221A605A6021
:10148C001D4B4FF080421A601B4B41F63F725A6065
:10149C00194B00229A60184B0922DA60164B002275
:1014AC001A61154B00229A61134801F03BFB03466D
:1014BC00002B01D000F090F84FF48053BB6007F183
:1014CC00080319460C4801F0B9FC0346002B01D067
:1014DC0000F082F800233B6000237B603B461946FA
:1014EC00054801F091FE0346002B01D000F074F882
:1014FC0000BF1837BD4680BDF803002080B586B00C
:10150C0000AF07F1080300221A605A609A60DA6093
:10151C00294B9B69284A43F004039361264B9B6932
:10152C0003F004037B607B68234B9B69224A43F0E6
:10153C0008039361204B9B6903F008033B603B68F5
:10154C00002240F2F6711D4800F0DFFE002243F647
:10155C00FF711B4800F0D9FE40F2F673BB6001230B
:10156C00FB6000233B6102237B6107F108031946F2
:10157C00124800F039FD43F6FF73BB600123FB609A
:10158C0000233B6102237B6107F1080319460C48D9
:10159C0000F02AFD4FF4F043BB600023FB600123F5
:1015AC003B6107F108031946044800F01DFD00BF1C
:1015BC001837BD4680BD00BF001002400008014036
:1015CC00000C014080B582B000AF786000F04EF99D
:1015DC0000BF0837BD4680BD80B400AF72B600BFF7
:1015EC00FEE7000080B483B000AF1D4B0022C3F8AF
:1015FC00202300237B6029E019497A6813469B005D
:10160C0013449B000B44043300221A6014497A687B
:10161C0013469B0013449B000B44083300221A60B2
:10162C000F497A6813469B0013449B000B440C3300
:10163C0000221A700A497A6813469B0013449B00D7
:10164C000B4400221A607B6801337B607B68272B7C
:10165C00D2DD00BF00BF0C37BD4680BC704700BF59
:10166C00D400002084B0B0B485B000AF07F12004E2
:10167C0084E80F00664BD3F82033002B0FD1644B5A
:10168C001D4607F120040FCC0FC523682B60604B5F
:10169C00D3F8203301335E4AC2F82033B3E0002381
:1016AC00FB605B4B5B68BB60BB687B6016E0FB68F8
:1016BC000133FB60564BD3F82033FA689A420DDAAB
:1016CC007B68BB605249FA6813469B0013449B002D
:1016DC000B4404331A687B6813447B604C4BD3F87F
:1016EC002033FA689A4203DA7A6A7B689A42DED827
:1016FC00474BD3F82033FA689A4219D17A6A7B683F
:10170C00D31A7B624249FA6813469B0013449B0030
:10171C000B441D4607F120040FCC0FC523682B602A
:10172C003B4BD3F820330133394AC2F820336AE0FB
:10173C00374BD3F820333B6017E03B685A1E3448D4
:10174C0039680B469B000B449B00184430491346E8
:10175C009B0013449B000B4404461D460FCD0FC445
:10176C002B6823603B68013B3B603A68FB689A42FC
:10177C00E3DCFB68002B0CD1254B1D4607F1200444
:10178C000FCC0FC523682B6000237B607B6ABB608A
:10179C0017E07A6ABB68D31A7B62BB687B607A6A93
:1017AC00BB681344BB601A49FA6813469B00134488
:1017BC009B000B441D4607F120040FCC0FC523687A
:1017CC002B60FB685A1C124913469B0013449B0068
:1017DC000B4404331A687B6813447B607A68BB68DB
:1017EC00D11AFB685A1C0846094913469B0013443E
:1017FC009B000B4404331860054BD3F820330133A2
:10180C00034AC2F820331437BD46B0BC04B070474D
:10181C00D400002080B58CB002AFF860B9607A605B
:10182C00104BD3F82033272B18DCFB687B61BB688B
:10183C000D4AA2FB0323DB08BB617B680A4AA2FBAF
:10184C000323DB08FB61002387F820307B6A0093BD
:10185C0007F114030FCBFFF705FF00E000BF28379B
:10186C00BD4680BDD4000020CDCCCCCC80B400AF24
:10187C00104B1B68002B18D00E4B5B68002B0ED145
:10188C000C4B1B7B0133DAB20A4B1A73094B9B6866
:10189C00002B0BD0074B9B68064A536006E0054BA8
:1018AC005B68013B034A536000E000BFBD4680BC4F
:1018BC00704700BFD4000020B0B58AB002AF00233F
:1018CC00FB610023BB61344B9B68002B21D00123AF
:1018DC00BB61314B3C1D1D460FCD0FC42B682360E3
:1018EC0017E0FB695A1C2C48F9690B469B000B440A
:1018FC009B001844284913469B0013449B000B443F
:10190C0004461D460FCD0FC42B682360FB690133C1
:10191C00FB61214BD3F82033013BFA699A42E0DB9F
:10192C001D49FA6913469B0013449B000B4400228B
:10193C001A601949FA6913469B0013449B000B4427
:10194C00043300221A601449FA6913469B001344AD
:10195C009B000B44083300221A600F49FA691346A6
:10196C009B0013449B000B440C3300221A700A4B4F
:10197C00D3F82033013B084AC2F82033BB69002B53
:10198C0005D07B6900933B1D0FCBFFF76BFE00BFAF
:10199C002037BD46B0BD00BFD400002080B582B05A
:1019AC0000AF00237B602DE01A497A6813469B0038
:1019BC0013449B000B440C331B78002B1FD0154990
:1019CC007A6813469B0013449B000B441B68984792
:1019DC0010497A6813469B0013449B000B440C334C
:1019EC001B78013BD8B20B497A6813469B00134411
:1019FC009B000B440C3302461A70FFF75DFF7B68AB
:101A0C0001337B607B68272BCEDD00BF00BF08371E
:101A1C00BD4680BDD400002080B483B000AF786098
:101A2C00054A7B681360054B00221A6000BF0C3717
:101A3C00BD4680BC704700BFB4000020B800002039
:101A4C0080B400AF094B1B68002B0BDD074B1B68E8
:101A5C00013B064A1360054B1B68002B02DC044B50
:101A6C0001221A6000BFBD4680BC7047B400002044
:101A7C00B800002080B483B000AF7860054A7B6862
:101A8C001360054B00221A6000BF0C37BD4680BCAA
:101A9C00704700BFBC000020C000002080B400AF25
:101AAC00094B1B68002B0BDD074B1B68013B064ADF
:101ABC001360054B1B68002B02DC044B01221A60DF
:101ACC0000BFBD4680BC7047BC000020C000002099
:101ADC0080B483B000AF7860054A7B681360054B17
:101AEC0000221A6000BF0C37BD4680BC704700BF97
:101AFC00C4000020C800002080B400AF094B1B6854
:101B0C00002B0BDD074B1B68013B064A1360054B92
:101B1C001B68002B02DC044B01221A6000BFBD467F
:101B2C0080BC7047C4000020C800002080B483B083
:101B3C0000AF7860054A7B681360054B00221A6081
:101B4C0000BF0C37BD4680BC704700BFCC000020E6
:101B5C00D000002080B400AF094B1B68002B0BDDBC
:101B6C00074B1B68013B064A1360054B1B68002B97
:101B7C0002DC044B01221A6000BFBD4680BC7047DA
:101B8C00CC000020D000002080B500AFFFF786FF0E
:101B9C00FFF7B2FFFFF7DEFFFFF752FF00BF80BD7C
:101BAC0080B485B000AF154B9B69144A43F0010318
:101BBC009361124B9B6903F00103BB60BB680F4B35
:101BCC00DB690E4A43F08053D3610C4BDB6903F0A5
:101BDC0080537B607B680A4B5B68FB60FB6823F07F
:101BEC00E063FB60FB6843F08063FB60044AFB68C6
:101BFC00536000BF1437BD4680BC704700100240D4
:101C0C000000014080B584B000AF78607B681B6831
:101C1C00B3F1804F13D10C4BDB690B4A43F001033A
:101C2C00D361094BDB6903F00103FB60FB68002205
:101C3C0000211C2000F0A1F91C2000F0BAF900BF13
:101C4C001037BD4680BD00BF0010024080B400AF0D
:101C5C00FEE780B400AFFEE780B400AFFEE780B4CF
:101C6C0000AFFEE780B400AFFEE780B400AF00BF6A
:101C7C00BD4680BC704780B400AF00BFBD4680BC81
:101C8C00704780B400AF00BFBD4680BC704780B5C4
:101C9C0000AF00F07FF800BF80BD000080B500AF42
:101CAC00024800F0DBFF00BF80BD00BFF80300203E
:101CBC0080B400AF00BFBD4680BC7047FFF7F8FF93
:101CCC000B480C490C4A002302E0D458C45004338E
:101CDC00C4188C42F9D3094A094C002301E0136063
:101CEC000432A242FBD301F0F9FAFFF71BFB704759
:101CFC0000000020780000209033000878000020BD
:101D0C0044040020FEE7000080B500AF084B1B68C0
:101D1C00074A43F010031360032000F023F90F204F
:101D2C0000F008F8FFF73CFF0023184680BD00BF09
:101D3C000020024080B582B000AF7860124B1A6868
:101D4C00124B1B7819464FF47A73B3FBF1F3B2FBC9
:101D5C00F3F3184600F03BF90346002B01D00123A6
:101D6C000EE07B680F2B0AD8002279684FF0FF3009
:101D7C0000F003F9064A7B681360002300E001239E
:101D8C0018460837BD4680BD6C000020740000204A
:101D9C007000002080B400AF054B1B781A46054B31
:101DAC001B681344034A136000BFBD4680BC7047D8
:101DBC00740000204004002080B400AF024B1B686C
:101DCC001846BD4680BC70474004002080B485B0E6
:101DDC0000AF78607B6803F00703FB600C4BDB689B
:101DEC00BB60BA684FF6FF031340BB60FB681A0276
:101DFC00BB68134343F0BF6343F40033BB60044A36
:101E0C00BB68D36000BF1437BD4680BC704700BFB1
:101E1C0000ED00E080B400AF044BDB681B0A03F05C
:101E2C0007031846BD4680BC704700BF00ED00E0BC
:101E3C0080B483B000AF0346FB7197F90730002BD9
:101E4C000BDBFB7903F01F02064997F907305B099E
:101E5C00012000FA02F241F8232000BF0C37BD46E6
:101E6C0080BC704700E100E080B483B000AF034653
:101E7C003960FB7197F90730002B0ADB3B68DAB24B
:101E8C000C4997F907301201D2B20B4483F80023A6
:101E9C000AE03B68DAB20849FB7903F00F03043B14
:101EAC001201D2B20B441A7600BF0C37BD4680BC6F
:101EBC00704700BF00E100E000ED00E080B489B0A5
:101ECC0000AFF860B9607A60FB6803F00703FB6150
:101EDC00FB69C3F10703042B28BF0423BB61FB6917
:101EEC000433062B02D9FB69033B00E000237B6122
:101EFC004FF0FF32BB6902FA03F3DA43BB681A40B6
:101F0C007B699A404FF0FF317B6901FA03F3D943A7
:101F1C007B680B40134318462437BD4680BC704782
:101F2C0080B582B000AF78607B68013BB3F1807FF5
:101F3C0001D301230FE00A4A7B68013B53600F2158
:101F4C004FF0FF30FFF790FF054B00229A60044BD7
:101F5C0007221A60002318460837BD4680BD00BF13
:101F6C0010E000E080B582B000AF78607868FFF7D1
:101F7C002DFF00BF0837BD4680BD80B586B000AFD1
:101F8C000346B9607A60FB7300237B61FFF742FF65
:101F9C0078617A68B9687869FFF790FF024697F91B
:101FAC000F3011461846FFF75FFF00BF1837BD46CC
:101FBC0080BD80B582B000AF0346FB7197F9073046
:101FCC001846FFF735FF00BF0837BD4680BD80B50A
:101FDC0082B000AF78607868FFF7A2FF034618461E
:101FEC000837BD4680BD000080B48BB000AF786070
:101FFC00396000237B6200233B6248E101227B6A4B
:10200C0002FA03F3FB613B681B68FA691340BB617E
:10201C00BA69FB699A4240F037813B685B68A34A16
:10202C0093425ED0A14A934275D8A14A934258D0AC
:10203C009F4A93426FD89F4A934252D09D4A9342F3
:10204C0069D89D4A93424CD09B4A934263D89B4A91
:10205C00934246D0994A93425DD8122B2AD8122B20
:10206C0059D801A252F823F0EF200008C92000082B
:10207C00DB2000081D210008232100082321000873
:10208C002321000823210008232100082321000814
:10209C002321000823210008232100082321000804
:1020AC00232100082321000823210008D120000847
:1020BC00E5200008824A934213D02CE03B68DB6891
:1020CC003B6229E03B68DB6804333B6224E03B68FD
:1020DC00DB6808333B621FE03B68DB680C333B6218
:1020EC001AE03B689B68002B02D104233B6213E08F
:1020FC003B689B68012B05D108233B627B68FA691E
:10210C001A6109E008233B627B68FA695A6103E0B3
:10211C0000233B6200E000BFBB69FF2B01D87B684A
:10212C0001E07B6804337B61BB69FF2B02D87B6ABF
:10213C009B0002E07B6A083B9B003B617B691A6851
:10214C000F213B6901FA03F3DB431A40396A3B69FF
:10215C0001FA03F31A437B691A603B685B6803F06E
:10216C008053002B00F09080564B9B69554A43F0EE
:10217C0001039361534B9B6903F00103BB60BB6884
:10218C00514A7B6A9B08023352F82330FB607B6A0E
:10219C0003F003039B000F2202FA03F3DB43FA68FC
:1021AC001340FB607B68494A93420DD07B68484AD8
:1021BC00934207D07B68474A934201D1022304E043
:1021CC00032302E0012300E000237A6A02F00302F9
:1021DC0092009340FA681343FB603B497B6A9B086F
:1021EC000233FA6841F823203B685B6803F48013E0
:1021FC00002B06D0384B9A683749BB6913438B6068
:10220C0006E0354B9A68BB69DB43334913408B605E
:10221C003B685B6803F40013002B06D02E4BDA6886
:10222C002D49BB691343CB6006E02B4BDA68BB69C5
:10223C00DB4329491340CB603B685B6803F40033F4
:10224C00002B06D0244B5A682349BB6913434B60BF
:10225C0006E0214B5A68BB69DB431F4913404B60B6
:10226C003B685B6803F48033002B06D01A4B1A686A
:10227C001949BB6913430B6006E0174B1A68BB691D
:10228C00DB43154913400B607B6A01337B623B686F
:10229C001A687B6A22FA03F3002B7FF4AFAE00BFFF
:1022AC0000BF2C37BD4680BC704700BF0000321009
:1022BC00000031100000221000002110000012104C
:1022CC000000111000100240000001400008014005
:1022DC00000C0140001001400004014080B485B0A6
:1022EC0000AF78600B467B807B689A687B881340D4
:1022FC00002B02D00123FB7301E00023FB73FB7B5B
:10230C0018461437BD4680BC704780B483B000AF0C
:10231C0078600B467B8013467B707B78002B03D058
:10232C007A887B681A6103E07B881A047B681A61DF
:10233C0000BF0C37BD4680BC704780B485B000AF81
:10234C0078600B467B807B68DB68FB607A88FB6877
:10235C0013401A04FB68D9437B880B401A437B68F3
:10236C001A6100BF1437BD4680BC704780B586B07B
:10237C0000AF78607B68002B01D101236CE27B6895
:10238C001B6803F00103002B00F08780924B5B6805
:10239C0003F00C03042B0CD08F4B5B6803F00C0385
:1023AC00082B12D18C4B5B6803F48033B3F5803F60
:1023BC000BD1894B1B6803F40033002B6CD07B686A
:1023CC005B68002B68D1012346E27B685B68B3F540
:1023DC00803F06D1804B1B687F4A43F480331360E7
:1023EC002EE07B685B68002B0CD17B4B1B687A4A18
:1023FC0023F480331360784B1B68774A23F48023D3
:10240C0013601DE07B685B68B3F5A02F0CD1724B99
:10241C001B68714A43F4802313606F4B1B686E4A30
:10242C0043F4803313600BE06B4B1B686A4A23F454
:10243C0080331360684B1B68674A23F48023136056
:10244C007B685B68002B13D0FFF7B6FC386108E0A3
:10245C00FFF7B2FC02463B69D31A642B01D9032364
:10246C00FAE15D4B1B6803F40033002BF0D014E051
:10247C00FFF7A2FC386108E0FFF79EFC02463B69BF
:10248C00D31A642B01D90323E6E1534B1B6803F4E5
:10249C000033002BF0D100E000BF7B681B6803F019
:1024AC000203002B63D04C4B5B6803F00C03002B36
:1024BC000BD0494B5B6803F00C03082B1CD1464B2B
:1024CC005B6803F48033002B16D1434B1B6803F07D
:1024DC000203002B05D07B681B69012B01D0012363
:1024EC00BAE13D4B1B6823F0F8027B685B69DB00AB
:1024FC00394913430B603AE07B681B69002B20D0F1
:10250C00364B01221A60FFF757FC386108E0FFF7E1
:10251C0053FC02463B69D31A022B01D903239BE1DE
:10252C002D4B1B6803F00203002BF0D02A4B1B68C9
:10253C0023F0F8027B685B69DB00274913430B60CF
:10254C0015E0264B00221A60FFF736FC386108E0D4
:10255C00FFF732FC02463B69D31A022B01D9032345
:10256C007AE11D4B1B6803F00203002BF0D17B6852
:10257C001B6803F00803002B3AD07B689B69002B87
:10258C0019D0174B01221A60FFF716FC386108E0CE
:10259C00FFF712FC02463B69D31A022B01D9032325
:1025AC005AE10D4B5B6A03F00203002BF0D00120C3
:1025BC0000F09AFA1CE00A4B00221A60FFF7FCFBB1
:1025CC0038610FE0FFF7F8FB02463B69D31A022B88
:1025DC0008D9032340E100BF001002400000424232
:1025EC00800442429E4B5B6A03F00203002BE9D14C
:1025FC007B681B6803F00403002B00F0A68000230B
:10260C00FB75974BDB6903F08053002B0DD1944B7A
:10261C00DB69934A43F08053D361914BDB6903F040
:10262C008053BB60BB680123FB758E4B1B6803F4A6
:10263C008073002B18D18B4B1B688A4A43F4807330
:10264C001360FFF7B9FB386108E0FFF7B5FB0246F2
:10265C003B69D31A642B01D90323FDE0814B1B6822
:10266C0003F48073002BF0D07B68DB68012B06D160
:10267C007B4B1B6A7A4A43F0010313622DE07B68A3
:10268C00DB68002B0CD1764B1B6A754A23F00103D7
:10269C001362734B1B6A724A23F0040313621CE02F
:1026AC007B68DB68052B0CD16D4B1B6A6C4A43F0C5
:1026BC00040313626A4B1B6A694A43F001031362F9
:1026CC000BE0674B1B6A664A23F001031362644BF1
:1026DC001B6A634A23F0040313627B68DB68002BDC
:1026EC0015D0FFF769FB38610AE0FFF765FB02467E
:1026FC003B69D31A41F28832934201D90323ABE0F0
:10270C00574B1B6A03F00203002BEED014E0FFF7CB
:10271C0053FB38610AE0FFF74FFB02463B69D31AC3
:10272C0041F28832934201D9032395E04C4B1B6A4A
:10273C0003F00203002BEED1FB7D012B05D1484B9E
:10274C00DB69474A23F08053D3617B68DB69002B3C
:10275C0000F08180424B5B6803F00C03082B61D0C6
:10276C007B68DB69022B46D13F4B00221A60FFF7D6
:10277C0023FB386108E0FFF71FFB02463B69D31AC5
:10278C00022B01D9032367E0354B1B6803F0007360
:10279C00002BF0D17B681B6AB3F5803F08D1304B1E
:1027AC005B6823F400327B689B682D4913434B60B4
:1027BC002B4B5B6823F474127B68196A7B685B6A29
:1027CC000B43274913434B60274B01221A60FFF739
:1027DC00F3FA386108E0FFF7EFFA02463B69D31AC7
:1027EC00022B01D9032337E01D4B1B6803F0007348
:1027FC00002BF0D02FE01C4B00221A60FFF7DCFA04
:10280C00386108E0FFF7D8FA02463B69D31A022B6D
:10281C0001D9032320E0124B1B6803F00073002B3B
:10282C00F0D118E07B68DB69012B01D1012313E0A7
:10283C000B4B5B68FB60FB6803F480327B681B6AA4
:10284C009A4206D1FB6803F470127B685B6A9A4269
:10285C0001D0012300E0002318461837BD4680BD87
:10286C0000100240007000406000424280B584B00D
:10287C0000AF786039607B68002B01D10123D0E078
:10288C006A4B1B6803F007033A689A4210D9674BEE
:10289C001B6823F0070265493B6813430B60634BCD
:1028AC001B6803F007033A689A4201D00123B8E091
:1028BC007B681B6803F00203002B20D07B681B682D
:1028CC0003F00403002B05D0594B5B68584A43F4C2
:1028DC00E06353607B681B6803F00803002B05D092
:1028EC00534B5B68524A43F460535360504B5B68E4
:1028FC0023F0F0027B689B684D4913434B607B6867
:10290C001B6803F00103002B40D07B685B68012B34
:10291C0007D1474B1B6803F40033002B15D101235F
:10292C007FE07B685B68022B07D1414B1B6803F08F
:10293C000073002B09D1012373E03D4B1B6803F09E
:10294C000203002B01D101236BE0394B5B6823F0B0
:10295C0003027B685B68364913434B60FFF72CFA24
:10296C00F8600AE0FFF728FA0246FB68D31A41F236
:10297C008832934201D9032353E02D4B5B6803F05B
:10298C000C027B685B689B009A42EBD1274B1B685F
:10299C0003F007033A689A4210D2244B1B6823F0C9
:1029AC00070222493B6813430B60204B1B6803F062
:1029BC0007033A689A4201D0012332E07B681B6816
:1029CC0003F00403002B08D0194B5B6823F4E0627E
:1029DC007B68DB68164913434B607B681B6803F00C
:1029EC000803002B09D0124B5B6823F460527B6800
:1029FC001B69DB000E4913434B6000F021F80246C3
:102A0C000B4B5B681B0903F00F030A49CB5C22FAE2
:102A1C0003F3094A1360094B1B681846FFF78AF940
:102A2C00002318461037BD4680BD00BF0020024071
:102A3C0000100240643300086C000020700000207D
:102A4C0080B487B000AF0023FB600023BB60002381
:102A5C007B6100237B6000233B611E4B5B68FB604A
:102A6C00FB6803F00C03042B02D0082B03D027E0E7
:102A7C00194B3B6127E0FB689B0C03F00F03174AD3
:102A8C00D35C7B60FB6803F48033002B10D0114BBC
:102A9C005B685B0C03F00103114AD35CBB607B6881
:102AAC000D4A02FB03F2BB68B2FBF3F37B6104E05B
:102ABC007B680C4A02FB03F37B617B693B6102E0A0
:102ACC00054B3B6100BF3B6918461C37BD4680BCBB
:102ADC00704700BF0010024000127A0074330008E7
:102AEC008433000800093D0080B485B000AF7860E5
:102AFC000A4B1B680A4AA2FB03235B0A7A6802FB97
:102B0C0003F3FB6000BFFB685A1EFA60002BF9D17F
:102B1C0000BF00BF1437BD4680BC70476C0000205E
:102B2C00D34D621080B582B000AF78607B68002B0B
:102B3C0001D1012341E07B6893F83D30DBB2002BDF
:102B4C0006D17B68002283F83C207868FFF75AF89E
:102B5C007B68022283F83D207B681A687B6804330B
:102B6C001946104600F056FA7B68012283F846207D
:102B7C007B68012283F83E207B68012283F83F208A
:102B8C007B68012283F840207B68012283F8412076
:102B9C007B68012283F842207B68012283F8432062
:102BAC007B68012283F844207B68012283F845204E
:102BBC007B68012283F83D20002318460837BD4668
:102BCC0080BD000080B485B000AF78607B6893F85E
:102BDC003D30DBB2012B01D0012335E07B680222B2
:102BEC0083F83D207B681B68DA687B681B6842F0C1
:102BFC000102DA607B681B68164A934209D07B6835
:102C0C001B68B3F1804F04D07B681B68124A934257
:102C1C0011D17B681B689B6803F00703FB60FB68A2
:102C2C00062B10D07B681B681A687B681B6842F007
:102C3C0001021A6007E07B681B681A687B681B68D6
:102C4C0042F001021A60002318461437BD4680BCBE
:102C5C00704700BF002C01400004004080B584B0D8
:102C6C0000AF78607B681B68DB68FB607B681B6867
:102C7C001B69BB60BB6803F00203002B20D0FB6810
:102C8C0003F00203002B1BD07B681B686FF0020261
:102C9C001A617B6801221A777B681B689B6903F0B9
:102CAC000303002B03D0786800F098F905E07868EE
:102CBC0000F08BF9786800F09AF97B6800221A779B
:102CCC00BB6803F00403002B20D0FB6803F0040363
:102CDC00002B1BD07B681B686FF004021A617B68A9
:102CEC0002221A777B681B689B6903F44073002BE4
:102CFC0003D0786800F072F905E0786800F065F9A7
:102D0C00786800F074F97B6800221A77BB6803F0CE
:102D1C000803002B20D0FB6803F00803002B1BD00A
:102D2C007B681B686FF008021A617B6804221A77B3
:102D3C007B681B68DB6903F00303002B03D0786806
:102D4C0000F04CF905E0786800F03FF9786800F085
:102D5C004EF97B6800221A77BB6803F01003002B36
:102D6C0020D0FB6803F01003002B1BD07B681B6882
:102D7C006FF010021A617B6808221A777B681B6857
:102D8C00DB6903F44073002B03D0786800F026F95C
:102D9C0005E0786800F019F9786800F028F97B688C
:102DAC0000221A77BB6803F00103002B0CD0FB68E0
:102DBC0003F00103002B07D07B681B686FF0010246
:102DCC001A617868FEF7FEFBBB6803F08003002BEA
:102DDC000CD0FB6803F08003002B07D07B681B68CA
:102DEC006FF080021A61786800F06FFABB6803F02C
:102DFC004003002B0CD0FB6803F04003002B07D0E2
:102E0C007B681B686FF040021A61786800F0F8F874
:102E1C00BB6803F02003002B0CD0FB6803F02003ED
:102E2C00002B07D07B681B686FF020021A61786852
:102E3C0000F042FA00BF1037BD4680BD80B584B0AB
:102E4C0000AF786039600023FB737B6893F83C30EB
:102E5C00012B01D10223B4E07B68012283F83C20D2
:102E6C007B68022283F83D207B681B689B68BB60F3
:102E7C00BB6823F07703BB60BB6823F47F43BB6064
:102E8C007B681B68BA689A603B681B68B3F5005F87
:102E9C003ED0B3F5005F00F28780B3F5805F00F0A1
:102EAC008680B3F5805F7FD8702B1AD0702B7BD8BF
:102EBC00602B50D0602B77D8502B3CD0502B73D834
:102ECC00402B58D0402B6FD8302B64D0302B6BD884
:102EDC00202B60D0202B67D8002B5CD0102B5AD025
:102EEC0062E07B6818683B6899683B685A683B6885
:102EFC00DB6800F06AF97B681B689B68BB60BB6889
:102F0C0043F07703BB607B681B68BA689A604FE03C
:102F1C007B6818683B6899683B685A683B68DB6853
:102F2C0000F053F97B681B689A687B681B6842F455
:102F3C0080429A603CE07B6818683B6859683B6843
:102F4C00DB681A4600F0CAF87B681B6850211846EB
:102F5C0000F021F92CE07B6818683B6859683B68E5
:102F6C00DB681A4600F0E8F87B681B68602118469D
:102F7C0000F011F91CE07B6818683B6859683B68E5
:102F8C00DB681A4600F0AAF87B681B6840211846DB
:102F9C0000F001F90CE07B681A683B681B68194665
:102FAC00104600F0F8F803E00123FB7300E000BFCB
:102FBC007B68012283F83D207B68002283F83C204B
:102FCC00FB7B18461037BD4680BD80B483B000AF84
:102FDC00786000BF0C37BD4680BC704780B483B0AE
:102FEC0000AF786000BF0C37BD4680BC704780B422
:102FFC0083B000AF786000BF0C37BD4680BC704713
:10300C0080B483B000AF786000BF0C37BD4680BC85
:10301C007047000080B485B000AF786039607B6881
:10302C001B68FB607B682B4A934207D07B68B3F12B
:10303C00804F03D07B68284A934208D1FB6823F069
:10304C007003FB603B685B68FA681343FB607B684A
:10305C00204A934207D07B68B3F1804F03D07B6842
:10306C001D4A934208D1FB6823F44073FB603B6814
:10307C00DB68FA681343FB60FB6823F080023B6853
:10308C005B691343FB607B68FA681A603B689A685B
:10309C007B68DA623B681A687B689A627B680D4AC7
:1030AC00934203D13B681A697B681A637B680122DF
:1030BC005A617B681B6903F00103002B05D07B6808
:1030CC001B6923F001027B681A6100BF1437BD46EF
:1030DC0080BC7047002C01400004004080B487B0D5
:1030EC0000AFF860B9607A60FB681B6A7B61FB68B3
:1030FC001B6A23F00102FB681A62FB689B693B6147
:10310C003B6923F0F0033B617B681B013A69134375
:10311C003B617B6923F00A037B617A69BB681343CB
:10312C007B61FB683A699A61FB687A691A6200BF35
:10313C001C37BD4680BC704780B487B000AFF860C8
:10314C00B9607A60FB681B6A7B61FB681B6A23F0C1
:10315C001002FB681A62FB689B693B613B6923F4B4
:10316C0070433B617B681B033A6913433B617B698A
:10317C0023F0A0037B61BB681B017A6913437B615D
:10318C00FB683A699A61FB687A691A6200BF1C375E
:10319C00BD4680BC704780B485B000AF78603960A4
:1031AC007B689B68FB60FB6823F07003FB603A68EC
:1031BC00FB68134343F00703FB607B68FA689A6073
:1031CC0000BF1437BD4680BC704780B487B000AFD9
:1031DC00F860B9607A603B60FB689B687B617B69D7
:1031EC0023F47F437B613B681A027B681A43BB68FC
:1031FC0013437A6913437B61FB687A699A6000BF59
:10320C001C37BD4680BC704780B485B000AF786079
:10321C0039607B6893F83C30012B01D1022341E0EB
:10322C007B68012283F83C207B68022283F83D20D6
:10323C007B681B685B68FB607B681B689B68BB607A
:10324C00FB6823F07003FB603B681B68FA68134350
:10325C00FB607B681B68FA685A607B681B68144AC1
:10326C00934209D07B681B68B3F1804F04D07B6814
:10327C001B68104A93420CD1BB6823F08003BB60DF
:10328C003B685B68BA681343BB607B681B68BA68B1
:10329C009A607B68012283F83D207B68002283F8CA
:1032AC003C20002318461437BD4680BC704700BF35
:1032BC00002C01400004004080B483B000AF786063
:1032CC0000BF0C37BD4680BC704780B483B000AFE4
:1032DC00786000BF0C37BD4680BC704770B50026C7
:1032EC000C4D0D4C641BA410A64209D100F022F821
:1032FC0000260A4D0A4C641BA410A64205D170BDD1
:10330C0055F8043B98470136EEE755F8043B9847CF
:10331C000136F2E788330008883300088833000848
:10332C008C33000803460244934200D1704703F8E3
:10333C00011BF9E7F8B500BFF8BC08BC9E46704706
:0C334C00F8B500BFF8BC08BC9E467047F6
:103358003F065B4F666D7D077F6F00000000000031
:10336800000000000102030406070809020304051F
:10337800060708090A0B0C0D0E0F101001020000B9
:043388003101000807
:04338C000D01000827
:103390000100000001000000010000000100000029
:1033A000C800000001000000010000000100000052
:1033B00001000000C8000000010000000100000042
:1033C0000100000001000000C80000000100000032
:1033D000010000000100000001000000C800000022
:1033E00003000000020000000500000001000000D2
:1033F00002000000030000000400000000127A0038
:083400001000000001000000B3
:0400000508001CC90A
:00000001FF
