:020000040800F2
:100000000028002095140008251400082B1400086F
:1000100031140008371400083D14000800000000E7
:100020000000000000000000000000004314000871
:100030004F140008000000005B140008671400085B
:10004000DD140008DD140008DD140008DD140008CC
:10005000DD140008DD140008DD140008DD140008BC
:10006000DD140008DD140008DD140008DD140008AC
:10007000DD140008DD140008DD140008DD1400089C
:10008000DD140008DD140008DD140008DD1400088C
:10009000DD140008DD140008DD140008DD1400087C
:1000A000DD140008DD140008DD140008DD1400086C
:1000B00075140008DD14000800000000DD140008BD
:1000C000DD1400080000000000000000DD1400083E
:1000D00000000000DD140008DD140008000000002E
:1000E000DD140008DD140008DD1400080000000025
:1000F0000000000000000000000000000000000000
:0C01000000000000000000005FF808F1A3
:10010C0010B5054C237833B9044B13B10448AFF345
:10011C0000800123237010BD5C0000200000000053
:10012C000C2B000808B5034B1BB103490348AFF374
:10013C00008008BD00000000600000200C2B0008AF
:10014C0080B400AF064B1B68012B04D1044B00227A
:10015C001A60012300E000231846BD4680BC70479E
:10016C007800002080B400AF034B01221A6000BF5E
:10017C00BD4680BC704700BF7800002080B500AF42
:10018C00224B1B68224A1360224B1B681F4A1360C8
:10019C004FF40051204801F087FC03461A461D4BD2
:1001AC001A601B4B1A68194B1B689A422BD1174BC0
:1001BC001A68184B1B689A4225D1184B1A68154BB4
:1001CC001B689A420DD0134B1B68144A1360114BD9
:1001DC001B68002B17D1124BC8221A60FFF7C2FF05
:1001EC0011E00F4B1B68013B0D4A13600C4B1B6855
:1001FC00002B08D1074B1B68002B01D1FFF7B2FF76
:10020C00074BC8221A6000BF80BD00BF040000204D
:10021C000000002008000020001001400C0000200D
:10022C001000002080B400AF064B1B68012B04D1DA
:10023C00044B00221A60012300E000231846BD463F
:10024C0080BC70477C00002080B400AF034B0122BF
:10025C001A6000BFBD4680BC704700BF7C00002008
:10026C0080B500AF224B1B68224A1360224B1B68DF
:10027C001F4A13604FF40061204801F015FC03463F
:10028C001A461D4B1A601B4B1A68194B1B689A4275
:10029C002BD1174B1A68184B1B689A4225D1184B57
:1002AC001A68154B1B689A420DD0134B1B68144AE5
:1002BC001360114B1B68002B17D1124BC8221A600C
:1002CC00FFF7C2FF11E00F4B1B68013B0D4A136097
:1002DC000C4B1B68002B08D1074B1B68002B01D162
:1002EC00FFF7B2FF074BC8221A6000BF80BD00BFEA
:1002FC0018000020140000201C0000200008014001
:10030C00200000202400002080B400AF064B1B68A6
:10031C00012B04D1044B00221A60012300E00023BE
:10032C001846BD4680BC70478000002080B400AFEA
:10033C00034B01221A6000BFBD4680BC704700BF52
:10034C008000002080B500AF224B1B68224A13604E
:10035C00224B1B681F4A13604FF48051204801F058
:10036C00A3FB03461A461D4B1A601B4B1A68194B0C
:10037C001B689A422BD1174B1A68184B1B689A4270
:10038C0025D1184B1A68154B1B689A420DD0134B8C
:10039C001B68144A1360114B1B68002B17D1124BAE
:1003AC00C8221A60FFF7C2FF11E00F4B1B68013B1C
:1003BC000D4A13600C4B1B68002B08D1074B1B68B4
:1003CC00002B01D1FFF7B2FF074BC8221A6000BF08
:1003DC0080BD00BF2C000020280000203000002031
:1003EC0000080140340000203800002080B400AF29
:1003FC00064B1B68012B04D1044B00221A6001230D
:10040C0000E000231846BD4680BC704784000020E5
:10041C0080B400AF034B01221A6000BFBD4680BC04
:10042C00704700BF8400002080B500AF224B1B68D2
:10043C00224A1360224B1B681F4A13604FF4005171
:10044C00204801F031FB03461A461D4B1A601B4B2A
:10045C001A68194B1B689A422BD1174B1A68184B08
:10046C001B689A4225D1184B1A68154B1B689A4287
:10047C000DD0134B1B68144A1360114B1B68002BD7
:10048C0017D1124BC8221A60FFF7C2FF11E00F4BB5
:10049C001B68013B0D4A13600C4B1B68002B08D1E9
:1004AC00074B1B68002B01D1FFF7B2FF074BC8228B
:1004BC001A6000BF80BD00BF400000203C0000203F
:1004CC004400002000080140480000204C0000209F
:1004DC0080B500AFA84B1B68013B042B00F2BE811A
:1004EC0001A252F823F000BF0905000827050008F7
:1004FC00F7050008BB0600089D07000800F074FC17
:10050C009D4B02221A609D4B03221A609C4B0222C7
:10051C001A60642000F0CEFEA9E101222021994846
:10052C0001F0D9FA00224021964801F0D4FA0122B8
:10053C008021944801F0CFFA00224FF48071914849
:10054C0001F0C9FA00224FF400718E4801F0C3FA91
:10055C0000224FF480618B4801F0BDFA874B1B6879
:10056C00184600F05BFB854B1B680233184600F005
:10057C00C5FB854B1B68012B14D1804B1B68013BC1
:10058C007E4A1360642000F095FE7C4B1B68002BA8
:10059C0008DC794B03221A60784B02221A60642023
:1005AC0000F088FEFFF7CCFD0346012B05D1724B02
:1005BC000D221A60C82000F07DFEFFF717FF0346DE
:1005CC00012B40F04D8100F069FE6B4B03221A6049
:1005DC006E4B63221A606A4B02221A60674B02222E
:1005EC001A60642000F066FE3AE101222021654881
:1005FC0001F071FA01224021624801F06CFA0022EC
:10060C008021604801F067FA00224FF480715D4848
:10061C0001F061FA00224FF400715A4801F05BFAC4
:10062C0000224FF48061574801F055FA534B1B6878
:10063C00184600F0F3FA514B1B68184600F05EFBAD
:10064C00514B1B68012B14D14C4B1B68013B4B4A83
:10065C001360642000F02EFE484B1B68002B08DC56
:10066C00454B04221A60454B03221A60642000F0AB
:10067C0021FEFFF765FD0346012B05D13E4B0E22F3
:10068C001A60C82000F016FEFFF7B0FE0346012BDF
:10069C0040F0E88000F002FE3C4B63221A60374BBE
:1006AC001B68374A1360642000F004FEDAE0002275
:1006BC002021344801F00FFA00224021314801F08A
:1006CC000AFA002280212F4801F005FA01224FF48A
:1006DC0080712C4801F0FFF900224FF40071294879
:1006EC0001F0F9F901224FF48061264801F0F3F989
:1006FC00224B1B680233184600F090FA1F4B1B6804
:10070C00184600F0FBFA204B1B68012B14D11B4B35
:10071C001B68013B194A1360642000F0CBFD174B9A
:10072C001B68002B08DC144B05221A60134B0222A9
:10073C001A60642000F0BEFDFFF702FD0346012B9A
:10074C0005D10D4B0C221A60C82000F0B3FDFFF749
:10075C004DFE0346012B40F0878000F09FFD0B4BB4
:10076C0017221A60064B03221A60044B03221A60EC
:10077C00642000F09FFD77E08800002090000020AE
:10078C009400002000080140A40000208C000020F0
:10079C0000222021414801F09EF9002240213F48CF
:1007AC0001F099F9002280213C4801F094F90122D2
:1007BC004FF48071394801F08EF901224FF4007129
:1007CC00364801F088F900224FF48061334801F07B
:1007DC0082F9334B1B68184600F020FA304B1B682B
:1007EC00184600F08BFA2F4B1B68012B14D12C4BA5
:1007FC001B68013B2A4A1360642000F05BFD284B08
:10080C001B68002B08DC284B02221A60244B0322A5
:10081C001A60642000F04EFDFFF792FC0346012B9A
:10082C0005D1214B0C221A60C82000F043FDFFF7C4
:10083C00DDFD0346012B19D100F030FD1B4B1722B7
:10084C001A601B4B03221A60174B05221A60144BBB
:10085C0005221A60642000F02DFD07E000BF06E0C1
:10086C0000BF04E000BF02E000BF00E000BFFFF7E4
:10087C00D9FC0346012B04D1094B1B68013B084AE8
:10088C001360FFF741FD0346012B04D1044B1B6899
:10089C000133034A136000BF80BD00BF0008014054
:1008AC0090000020A4000020880000208C00002074
:1008BC009400002080B500AF6C4B1B680C3B0C2BDC
:1008CC0000F2CA8001A252F823F000BF0D09000803
:1008DC007F090008F3090008650A0008650A00088A
:1008EC00650A0008650A0008650A0008650A000820
:1008FC00650A0008650A0008650A0008650A000810
:10090C00002220215A4801F0E6F8002240215848E4
:10091C0001F0E1F800228021554801F0DCF80122B9
:10092C004FF48071524801F0D6F800224FF4007158
:10093C004F4801F0D0F801224FF480614C4801F08F
:10094C00CAF800F0C7FA4B4B1B68012B05D1474B7B
:10095C0005221A60C82000F0ADFCFFF7F1FB03463E
:10096C00012B7BD1414B0D221A60C82000F0A2FC58
:10097C0074E0012220213E4801F0ADF80022402114
:10098C003B4801F0A8F801228021394801F0A3F876
:10099C0000224FF48071364801F09DF800224FF48C
:1009AC000071334801F097F800224FF48061304811
:1009BC0001F091F800F08EFA2E4B1B68012B06D13A
:1009CC002A4B02221A604FF4967000F073FCFFF76A
:1009DC00B7FB0346012B43D1244B0E221A60C820CF
:1009EC0000F068FC3CE001222021214801F073F862
:1009FC00012240211E4801F06EF8002280211C4883
:100A0C0001F069F800224FF48071194801F063F885
:100A1C0000224FF40071164801F05DF800224FF4EB
:100A2C008061134801F057F800F054FA114B1B6821
:100A3C00012B05D10D4B03221A60C82000F03AFCA3
:100A4C00FFF77EFB0346012B0CD1084B0C221A60DE
:100A5C00C82000F02FFC05E000BF04E000BF02E05E
:100A6C0000BF00E000BF00BF80BD00BF88000020B9
:100A7C0000080140A400002080B500AF634B1B6848
:100A8C00632B00F09280632B00F3B580622B0CD0AB
:100A9C00622B00F3B080182B3BD0182B00F3AB80EB
:100AAC00162B12D0172B5AD0A5E001220221584840
:100ABC0001F011F801220421554801F00CF8012233
:100ACC000821534801F007F89EE00022022150480B
:100ADC0001F001F8012204214D4800F0FCFF012235
:100AEC0008214B4800F0F7FF4A4B1B68012B40F0E4
:100AFC008480494B1B68013B474A1360642000F01B
:100B0C009FFB454B1B68002B77DC404B62221A6025
:100B1C0073E0012202213E4800F0DDFF0022042197
:100B2C003B4800F0D8FF01220821394800F0D3FFE0
:100B3C00384B1B68012B62D1374B1B68013B364A83
:100B4C001360642000F07CFB334B1B68002B56DCDD
:100B5C002E4B16221A60304B02221A604FE00122F3
:100B6C0002212B4800F0B7FF01220421284800F095
:100B7C00B2FF00220821264800F0ADFF254B1B6870
:100B8C00012B3ED1244B1B68013B234A136064208C
:100B9C0000F056FB204B1B68002B32DC1B4B182241
:100BAC001A601D4B02221A602BE000220221184809
:100BBC0000F091FF01220421154800F08CFF012266
:100BCC000821134800F087FF124B1B68012B1AD128
:100BDC00114B1B68013B104A1360642000F030FB82
:100BEC000D4B1B68002B0EDC084B17221A600A4BAE
:100BFC0003221A6007E000BF06E000BF04E000BF5C
:100C0C0002E000BF00E000BF00BF80BD8C000020F0
:100C1C00000801409C0000209400002080B584B0A6
:100C2C0000AF78607B68092B60DC324A7B68134428
:100C3C001B78FB73FB7B03F00103002B0CBF012320
:100C4C000023DBB21A4601212B4800F044FFFB7B4A
:100C5C0003F00203002B0CBF01230023DBB21A4666
:100C6C000221254800F037FFFB7B03F00403002B27
:100C7C000CBF01230023DBB21A4604211E4800F0EE
:100C8C002AFFFB7B03F00803002B0CBF012300237E
:100C9C00DBB21A460821184800F01DFFFB7B03F05D
:100CAC001003002B0CBF01230023DBB21A461021CA
:100CBC00114800F010FFFB7B03F02003002B0CBF4E
:100CCC0001230023DBB21A4620210B4800F003FF5E
:100CDC00FB7B03F04003002B0CBF01230023DBB292
:100CEC001A464021044800F0F6FE00E000BF103721
:100CFC00BD4680BD242B0008000C014080B584B09B
:100D0C0000AF78607B68092B66DC354A7B6813443E
:100D1C001B78FB73FB7B03F00103002B0CBF01233F
:100D2C000023DBB21A4680212E4800F0D4FEFB7B58
:100D3C0003F00203002B0CBF01230023DBB21A4685
:100D4C004FF48071274800F0C6FEFB7B03F00403D0
:100D5C00002B0CBF01230023DBB21A464FF40071A9
:100D6C00204800F0B8FEFB7B03F00803002B0CBFFF
:100D7C0001230023DBB21A464FF48061194800F0BE
:100D8C00AAFEFB7B03F01003002B0CBF01230023F6
:100D9C00DBB21A464FF40061124800F09CFEFB7B5C
:100DAC0003F02003002B0CBF01230023DBB21A46F7
:100DBC004FF480510B4800F08EFEFB7B03F0400398
:100DCC00002B0CBF01230023DBB21A464FF4005159
:100DDC00044800F080FE00E000BF1037BD4680BD27
:100DEC00242B0008000C014080B500AF002220210C
:100DFC00364800F070FE01224021344800F06BFEB2
:100E0C0001228021314800F066FE00224FF48071EF
:100E1C002E4800F060FE01224FF400712B4800F0C8
:100E2C005AFE01224FF48061284800F054FE002243
:100E3C000121274800F04FFE00220221244800F037
:100E4C004AFE00220421224800F045FE002208211F
:100E5C001F4800F040FE002210211D4800F03BFE10
:100E6C00002220211A4800F036FE002240211848AA
:100E7C0000F031FE00228021154800F02CFE0022EB
:100E8C004FF48071124800F026FE00224FF40071DE
:100E9C000F4800F020FE00224FF480610C4800F057
:100EAC001AFE00224FF40061094800F014FE0022E3
:100EBC004FF48051064800F00EFE00224FF4005112
:100ECC00034800F008FE00BF80BD00BF00080140D1
:100EDC00000C014080B500AF01220121254800F033
:100EEC00FAFD01220221234800F0F5FD0122042124
:100EFC00204800F0F0FD012208211E4800F0EBFD17
:100F0C00012210211B4800F0E6FD01222021194886
:100F1C0000F0E1FD01224021164800F0DCFD012229
:100F2C008021144800F0D7FD01224FF48071114844
:100F3C0000F0D1FD01224FF400710E4800F0CBFD02
:100F4C0001224FF480610B4800F0C5FD01224FF4E3
:100F5C000061084800F0BFFD01224FF480510548A4
:100F6C0000F0B9FD01224FF40051024800F0B3FD2E
:100F7C0000BF80BD000C014080B500AF00F0AAFAA4
:100F8C0000F03CF800F0C2F800F074F8164801F0DC
:100F9C00FFF9164B01221A60154B62221A6064206D
:100FAC0000F0B6F901220221124800F094FD012252
:100FBC000421104800F08FFD012208210D4800F09B
:100FCC008AFD0D4B1B68012B06D11021094800F03E
:100FDC009AFD642000F09CF9FFF74EFDFFF778FABC
:100FEC00FFF768FCEDE700BFB00000208800002090
:100FFC008C00002000080140AC00002080B590B0AF
:10100C0000AF07F1180328220021184601F070FDEB
:10101C003B1D00221A605A609A60DA601A61022342
:10102C00BB610123BB621023FB6200237B6307F1CE
:10103C001803184600F080FD0346002B01D000F089
:10104C00F9F80F237B600023BB600023FB600023B7
:10105C003B6100237B613B1D0021184600F0ECFF37
:10106C000346002B01D000F0E5F800BF4037BD4629
:10107C0080BD000080B586B000AF07F108030022E8
:10108C001A605A609A60DA603B4600221A605A6015
:10109C001D4B4FF080421A601B4B41F63F725A6059
:1010AC00194B00229A60184B0922DA60164B002269
:1010BC001A61154B00229A61134801F019F9034685
:1010CC00002B01D000F0B6F84FF48053BB6007F151
:1010DC00080319460C4801F097FA0346002B01D07F
:1010EC0000F0A8F800233B6000237B603B461946C8
:1010FC00054801F06FFC0346002B01D000F09AF874
:10110C0000BF1837BD4680BDB000002080B588B048
:10111C0000AF07F1100300221A605A609A60DA607F
:10112C00354B9B69344A43F010039361324B9B69F6
:10113C0003F01003FB60FB682F4B9B692E4A43F0B6
:10114C00040393612C4B9B6903F00403BB60BB68E5
:10115C00294B9B69284A43F008039361264B9B69F2
:10116C0003F008037B607B68002240F2FE71234889
:10117C0000F0B1FC002243F6FF71214800F0ABFCFB
:10118C004FF400533B6100237B610123BB6107F1EA
:10119C00100319461B4800F00DFB40F2FE733B6137
:1011AC0001237B610023BB610223FB6107F1100368
:1011BC001946124800F0FEFA43F6FF733B61012317
:1011CC007B610023BB610223FB6107F1100319460D
:1011DC000B4800F0EFFA4FF460533B6100237B6146
:1011EC000123BB6107F110031946044800F0E2FA31
:1011FC0000BF2037BD4680BD0010024000080140F2
:10120C00000C01400010014080B582B000AF786046
:10121C0000F092F800F062F800F026F8FEF7AEFF4E
:10122C00FFF71EF8FFF78EF8FFF7FEF800BF083740
:10123C00BD4680BD80B400AF72B600BFFEE70000B3
:10124C0080B483B000AF7860054A7B681360054BAF
:10125C0000221A6000BF0C37BD4680BC704700BF2F
:10126C00980000209C00002080B400AF094B1B6844
:10127C00002B0BDD074B1B68013B064A1360054B2B
:10128C001B68002B02DC044B01221A6000BFBD4618
:10129C0080BC7047980000209C00002080B500AFF7
:1012AC006420FFF7CDFF024B00221A6000BF80BD07
:1012BC009C00002080B483B000AF7860054A7B6846
:1012CC001360054B00221A6000BF0C37BD4680BC72
:1012DC00704700BFA0000020A400002080B400AF25
:1012EC00094B1B68002B0BDD074B1B68013B064AA7
:1012FC001360054B1B68002B02DC044B01221A60A7
:10130C0000BFBD4680BC7047A0000020A400002098
:10131C0080B483B000AF7860054A7B681360054BDE
:10132C0000221A6000BF0C37BD4680BC704700BF5E
:10133C00A8000020AC00002080B400AF094B1B6853
:10134C00002B0BDD074B1B68013B064A1360054B5A
:10135C001B68002B02DC044B01221A6000BFBD4647
:10136C0080BC7047A8000020AC00002080B485B081
:10137C0000AF154B9B69144A43F001039361124B68
:10138C009B6903F00103BB60BB680F4BDB690E4A22
:10139C0043F08053D3610C4BDB6903F080537B60CB
:1013AC007B680A4B5B68FB60FB6823F0E063FB60C7
:1013BC00FB6843F08063FB60044AFB68536000BF2A
:1013CC001437BD4680BC704700100240000001403D
:1013DC0080B584B000AF78607B681B68B3F1804F38
:1013EC0013D10C4BDB690B4A43F00103D361094B5E
:1013FC00DB6903F00103FB60FB68002200211C2069
:10140C0000F0A1F91C2000F0BAF900BF1037BD465E
:10141C0080BD00BF0010024080B400AFFEE780B476
:10142C0000AFFEE780B400AFFEE780B400AFFEE78C
:10143C0080B400AFFEE780B400AF00BFBD4680BCF7
:10144C00704780B400AF00BFBD4680BC704780B40D
:10145C0000AF00BFBD4680BC704780B500AF00F048
:10146C007FF800BF80BD000080B500AF024800F0DF
:10147C00DBFF00BF80BD00BFB000002080B400AF18
:10148C0000BFBD4680BC7047FFF7F8FF0B480C4906
:10149C000C4A002302E0D458C4500433C4188C42C4
:1014AC00F9D3094A094C002301E013600432A2422B
:1014BC00FBD301F0F9FAFFF75FFD70470000002045
:1014CC005C0000205C2B00085C000020FC0000206D
:1014DC00FEE7000080B500AF084B1B68074A43F0DD
:1014EC0010031360032000F023F90F2000F008F81C
:1014FC00FFF73CFF0023184680BD00BF00200240D0
:10150C0080B582B000AF7860124B1A68124B1B7812
:10151C0019464FF47A73B3FBF1F3B2FBF3F31846AD
:10152C0000F03BF90346002B01D001230EE07B6851
:10153C000F2B0AD8002279684FF0FF3000F003F926
:10154C00064A7B681360002300E001231846083725
:10155C00BD4680BD500000205800002054000020E3
:10156C0080B400AF054B1B781A46054B1B6813441F
:10157C00034A136000BFBD4680BC70475800002072
:10158C00F800002080B400AF024B1B681846BD4623
:10159C0080BC7047F800002080B485B000AF786044
:1015AC007B6803F00703FB600C4BDB68BB60BA681D
:1015BC004FF6FF031340BB60FB681A02BB68134372
:1015CC0043F0BF6343F40033BB60044ABB68D36091
:1015DC0000BF1437BD4680BC704700BF00ED00E073
:1015EC0080B400AF044BDB681B0A03F007031846FA
:1015FC00BD4680BC704700BF00ED00E080B483B0F6
:10160C0000AF0346FB7197F90730002B0BDBFB791E
:10161C0003F01F02064997F907305B09012000FA15
:10162C0002F241F8232000BF0C37BD4680BC704746
:10163C0000E100E080B483B000AF03463960FB7179
:10164C0097F90730002B0ADB3B68DAB20C4997F9A3
:10165C0007301201D2B20B4483F800230AE03B6836
:10166C00DAB20849FB7903F00F03043B1201D2B242
:10167C000B441A7600BF0C37BD4680BC704700BFC8
:10168C0000E100E000ED00E080B489B000AFF8604C
:10169C00B9607A60FB6803F00703FB61FB69C3F177
:1016AC000703042B28BF0423BB61FB690433062BFF
:1016BC0002D9FB69033B00E000237B614FF0FF3252
:1016CC00BB6902FA03F3DA43BB681A407B699A40A0
:1016DC004FF0FF317B6901FA03F3D9437B680B4070
:1016EC00134318462437BD4680BC704780B582B082
:1016FC0000AF78607B68013BB3F1807F01D301239D
:10170C000FE00A4A7B68013B53600F214FF0FF301A
:10171C00FFF790FF054B00229A60044B07221A60DA
:10172C00002318460837BD4680BD00BF10E000E01E
:10173C0080B582B000AF78607868FFF72DFF00BFEE
:10174C000837BD4680BD80B586B000AF0346B96092
:10175C007A60FB7300237B61FFF742FF78617A6844
:10176C00B9687869FFF790FF024697F90F30114678
:10177C001846FFF75FFF00BF1837BD4680BD80B528
:10178C0082B000AF0346FB7197F907301846FFF79C
:10179C0035FF00BF0837BD4680BD80B582B000AFB5
:1017AC0078607868FFF7A2FF034618460837BD46F5
:1017BC0080BD000080B48BB000AF7860396000232E
:1017CC007B6200233B6248E101227B6A02FA03F34D
:1017DC00FB613B681B68FA691340BB61BA69FB6922
:1017EC009A4240F037813B685B68A34A93425ED0D3
:1017FC00A14A934275D8A14A934258D09F4A93422A
:10180C006FD89F4A934252D09D4A934269D89D4AC1
:10181C0093424CD09B4A934263D89B4A934246D006
:10182C00994A93425DD8122B2AD8122B59D801A26F
:10183C0052F823F0BB18000895180008A7180008E8
:10184C00E9180008EF180008EF180008EF18000856
:10185C00EF180008EF180008EF180008EF18000840
:10186C00EF180008EF180008EF180008EF18000830
:10187C00EF180008EF1800089D180008B1180008B0
:10188C00824A934213D02CE03B68DB683B6229E030
:10189C003B68DB6804333B6224E03B68DB6808335D
:1018AC003B621FE03B68DB680C333B621AE03B6831
:1018BC009B68002B02D104233B6213E03B689B68BE
:1018CC00012B05D108233B627B68FA691A6109E098
:1018DC0008233B627B68FA695A6103E000233B6290
:1018EC0000E000BFBB69FF2B01D87B6801E07B687F
:1018FC0004337B61BB69FF2B02D87B6A9B0002E03F
:10190C007B6A083B9B003B617B691A680F213B6932
:10191C0001FA03F3DB431A40396A3B6901FA03F31A
:10192C001A437B691A603B685B6803F08053002B99
:10193C0000F09080564B9B69554A43F0010393612C
:10194C00534B9B6903F00103BB60BB68514A7B6A34
:10195C009B08023352F82330FB607B6A03F00303CD
:10196C009B000F2202FA03F3DB43FA681340FB607F
:10197C007B68494A93420DD07B68484A934207D012
:10198C007B68474A934201D1022304E0032302E01F
:10199C00012300E000237A6A02F0030292009340D4
:1019AC00FA681343FB603B497B6A9B080233FA6875
:1019BC0041F823203B685B6803F48013002B06D0AE
:1019CC00384B9A683749BB6913438B6006E0354B3B
:1019DC009A68BB69DB43334913408B603B685B6897
:1019EC0003F40013002B06D02E4BDA682D49BB698B
:1019FC001343CB6006E02B4BDA68BB69DB43294908
:101A0C001340CB603B685B6803F40033002B06D0BB
:101A1C00244B5A682349BB6913434B6006E0214BA6
:101A2C005A68BB69DB431F4913404B603B685B68DA
:101A3C0003F48033002B06D01A4B1A681949BB6982
:101A4C0013430B6006E0174B1A68BB69DB4315495F
:101A5C0013400B607B6A01337B623B681A687B6ABC
:101A6C0022FA03F3002B7FF4AFAE00BF00BF2C377C
:101A7C00BD4680BC704700BF000032100000311022
:101A8C0000002210000021100000121000001110A4
:101A9C00001002400000014000080140000C014011
:101AAC00001001400004014080B485B000AF7860A4
:101ABC000B467B807B689A687B881340002B02D096
:101ACC000123FB7301E00023FB73FB7B18461437E7
:101ADC00BD4680BC704780B483B000AF78600B46C5
:101AEC007B8013467B707B78002B03D07A887B68D5
:101AFC001A6103E07B881A047B681A6100BF0C37FB
:101B0C00BD4680BC704780B485B000AF78600B4692
:101B1C007B807B68DB68FB607A88FB6813401A0467
:101B2C00FB68D9437B880B401A437B681A6100BF62
:101B3C001437BD4680BC704780B586B000AF786066
:101B4C007B68002B01D101236CE27B681B6803F0DE
:101B5C000103002B00F08780924B5B6803F00C03B1
:101B6C00042B0CD08F4B5B6803F00C03082B12D1A9
:101B7C008C4B5B6803F48033B3F5803F0BD1894BFE
:101B8C001B6803F40033002B6CD07B685B68002B64
:101B9C0068D1012346E27B685B68B3F5803F06D1D0
:101BAC00804B1B687F4A43F4803313602EE07B68C4
:101BBC005B68002B0CD17B4B1B687A4A23F4803377
:101BCC001360784B1B68774A23F4802313601DE065
:101BDC007B685B68B3F5A02F0CD1724B1B68714A04
:101BEC0043F4802313606F4B1B686E4A43F48033BD
:101BFC0013600BE06B4B1B686A4A23F48033136051
:101C0C00684B1B68674A23F4802313607B685B680E
:101C1C00002B13D0FFF7B6FC386108E0FFF7B2FCDD
:101C2C0002463B69D31A642B01D90323FAE15D4BBD
:101C3C001B6803F40033002BF0D014E0FFF7A2FC78
:101C4C00386108E0FFF79EFC02463B69D31A642B0F
:101C5C0001D90323E6E1534B1B6803F40033002B3B
:101C6C00F0D100E000BF7B681B6803F00203002B7F
:101C7C0063D04C4B5B6803F00C03002B0BD0494B2F
:101C8C005B6803F00C03082B1CD1464B5B6803F418
:101C9C008033002B16D1434B1B6803F00203002B3F
:101CAC0005D07B681B69012B01D00123BAE13D4BA8
:101CBC001B6823F0F8027B685B69DB00394913432E
:101CCC000B603AE07B681B69002B20D0364B01225D
:101CDC001A60FFF757FC386108E0FFF753FC024627
:101CEC003B69D31A022B01D903239BE12D4B1B68B3
:101CFC0003F00203002BF0D02A4B1B6823F0F802F0
:101D0C007B685B69DB00274913430B6015E0264BAE
:101D1C0000221A60FFF736FC386108E0FFF732FC4E
:101D2C0002463B69D31A022B01D903237AE11D4BDE
:101D3C001B6803F00203002BF0D17B681B6803F0D7
:101D4C000803002B3AD07B689B69002B19D0174BEA
:101D5C0001221A60FFF716FC386108E0FFF712FC4D
:101D6C0002463B69D31A022B01D903235AE10D4BCE
:101D7C005B6A03F00203002BF0D0012000F09AFA0A
:101D8C001CE00A4B00221A60FFF7FCFB38610FE0E5
:101D9C00FFF7F8FB02463B69D31A022B08D9032341
:101DAC0040E100BF00100240000042428004424269
:101DBC009E4B5B6A03F00203002BE9D17B681B6826
:101DCC0003F00403002B00F0A6800023FB75974B57
:101DDC00DB6903F08053002B0DD1944BDB69934AE4
:101DEC0043F08053D361914BDB6903F08053BB60AC
:101DFC00BB680123FB758E4B1B6803F48073002BAF
:101E0C0018D18B4B1B688A4A43F480731360FFF71D
:101E1C00B9FB386108E0FFF7B5FB02463B69D31A02
:101E2C00642B01D90323FDE0814B1B6803F4807301
:101E3C00002BF0D07B68DB68012B06D17B4B1B6A37
:101E4C007A4A43F0010313622DE07B68DB68002BB8
:101E5C000CD1764B1B6A754A23F001031362734B4A
:101E6C001B6A724A23F0040313621CE07B68DB6874
:101E7C00052B0CD16D4B1B6A6C4A43F004031362A7
:101E8C006A4B1B6A694A43F0010313620BE0674B10
:101E9C001B6A664A23F001031362644B1B6A634A94
:101EAC0023F0040313627B68DB68002B15D0FFF76B
:101EBC0069FB38610AE0FFF765FB02463B69D31A00
:101ECC0041F28832934201D90323ABE0574B1B6A92
:101EDC0003F00203002BEED014E0FFF753FB386144
:101EEC000AE0FFF74FFB02463B69D31A41F28832F6
:101EFC00934201D9032395E04C4B1B6A03F0020378
:101F0C00002BEED1FB7D012B05D1484BDB69474AF9
:101F1C0023F08053D3617B68DB69002B00F0818058
:101F2C00424B5B6803F00C03082B61D07B68DB69C8
:101F3C00022B46D13F4B00221A60FFF723FB38617E
:101F4C0008E0FFF71FFB02463B69D31A022B01D9AD
:101F5C00032367E0354B1B6803F00073002BF0D1B3
:101F6C007B681B6AB3F5803F08D1304B5B6823F468
:101F7C0000327B689B682D4913434B602B4B5B688D
:101F8C0023F474127B68196A7B685B6A0B432749DC
:101F9C0013434B60274B01221A60FFF7F3FA3861A9
:101FAC0008E0FFF7EFFA02463B69D31A022B01D97E
:101FBC00032337E01D4B1B6803F00073002BF0D09C
:101FCC002FE01C4B00221A60FFF7DCFA386108E0A6
:101FDC00FFF7D8FA02463B69D31A022B01D9032327
:101FEC0020E0124B1B6803F00073002BF0D118E0BB
:101FFC007B68DB69012B01D1012313E00B4B5B6880
:10200C00FB60FB6803F480327B681B6A9A4206D142
:10201C00FB6803F470127B685B6A9A4201D001235F
:10202C0000E0002318461837BD4680BD0010024062
:10203C00007000406000424280B584B000AF786010
:10204C0039607B68002B01D10123D0E06A4B1B68FF
:10205C0003F007033A689A4210D9674B1B6823F0C8
:10206C00070265493B6813430B60634B1B6803F025
:10207C0007033A689A4201D00123B8E07B681B68D9
:10208C0003F00203002B20D07B681B6803F00403D1
:10209C00002B05D0594B5B68584A43F4E0635360FE
:1020AC007B681B6803F00803002B05D0534B5B685F
:1020BC00524A43F460535360504B5B6823F0F00278
:1020CC007B689B684D4913434B607B681B6803F02E
:1020DC000103002B40D07B685B68012B07D1474B79
:1020EC001B6803F40033002B15D101237FE07B68C0
:1020FC005B68022B07D1414B1B6803F00073002B6C
:10210C0009D1012373E03D4B1B6803F00203002B44
:10211C0001D101236BE0394B5B6823F003027B6830
:10212C005B68364913434B60FFF72CFAF8600AE002
:10213C00FFF728FA0246FB68D31A41F28832934221
:10214C0001D9032353E02D4B5B6803F00C027B6831
:10215C005B689B009A42EBD1274B1B6803F007038B
:10216C003A689A4210D2244B1B6823F0070222498A
:10217C003B6813430B60204B1B6803F007033A6862
:10218C009A4201D0012332E07B681B6803F0040300
:10219C00002B08D0194B5B6823F4E0627B68DB688A
:1021AC00164913434B607B681B6803F00803002B34
:1021BC0009D0124B5B6823F460527B681B69DB000F
:1021CC000E4913434B6000F021F802460B4B5B6841
:1021DC001B0903F00F030A49CB5C22FA03F3094AEB
:1021EC001360094B1B681846FFF78AF90023184641
:1021FC001037BD4680BD00BF0020024000100240D9
:10220C00302B0008500000205400002080B487B010
:10221C0000AF0023FB600023BB6000237B61002325
:10222C007B6000233B611E4B5B68FB60FB6803F02B
:10223C000C03042B02D0082B03D027E0194B3B6175
:10224C0027E0FB689B0C03F00F03174AD35C7B6001
:10225C00FB6803F48033002B10D0114B5B685B0CD4
:10226C0003F00103114AD35CBB607B680D4A02FB8F
:10227C0003F2BB68B2FBF3F37B6104E07B680C4AAE
:10228C0002FB03F37B617B693B6102E0054B3B6125
:10229C0000BF3B6918461C37BD4680BC704700BF69
:1022AC000010024000127A00402B0008502B00084E
:1022BC0000093D0080B485B000AF78600A4B1B6804
:1022CC000A4AA2FB03235B0A7A6802FB03F3FB6056
:1022DC0000BFFB685A1EFA60002BF9D100BF00BF8B
:1022EC001437BD4680BC704750000020D34D62109F
:1022FC0080B582B000AF78607B68002B01D10123E0
:10230C0041E07B6893F83D30DBB2002B06D17B6853
:10231C00002283F83C207868FFF75AF87B68022289
:10232C0083F83D207B681A687B6804331946104695
:10233C0000F056FA7B68012283F846207B68012264
:10234C0083F83E207B68012283F83F207B680122C2
:10235C0083F840207B68012283F841207B680122AE
:10236C0083F842207B68012283F843207B6801229A
:10237C0083F844207B68012283F845207B68012286
:10238C0083F83D20002318460837BD4680BD000069
:10239C0080B485B000AF78607B6893F83D30DBB2D9
:1023AC00012B01D0012335E07B68022283F83D200C
:1023BC007B681B68DA687B681B6842F00102DA6094
:1023CC007B681B68164A934209D07B681B68B3F183
:1023DC00804F04D07B681B68124A934211D17B68F2
:1023EC001B689B6803F00703FB60FB68062B10D08F
:1023FC007B681B681A687B681B6842F001021A60D4
:10240C0007E07B681B681A687B681B6842F0010256
:10241C001A60002318461437BD4680BC704700BFB5
:10242C00002C01400004004080B584B000AF7860FF
:10243C007B681B68DB68FB607B681B681B69BB6087
:10244C00BB6803F00203002B20D0FB6803F00203EF
:10245C00002B1BD07B681B686FF002021A617B6833
:10246C0001221A777B681B689B6903F00303002B1E
:10247C0003D0786800F098F905E0786800F08BF9E3
:10248C00786800F09AF97B6800221A77BB6803F031
:10249C000403002B20D0FB6803F00403002B1BD09B
:1024AC007B681B686FF004021A617B6802221A7742
:1024BC007B681B689B6903F44073002B03D078681E
:1024CC0000F072F905E0786800F065F9786800F0C2
:1024DC0074F97B6800221A77BB6803F00803002BA1
:1024EC0020D0FB6803F00803002B1BD07B681B6813
:1024FC006FF008021A617B6804221A777B681B68EC
:10250C00DB6903F00303002B03D0786800F04CF96F
:10251C0005E0786800F03FF9786800F04EF97B68C8
:10252C0000221A77BB6803F01003002B20D0FB6845
:10253C0003F01003002B1BD07B681B686FF010029C
:10254C001A617B6808221A777B681B68DB6903F4C5
:10255C004073002B03D0786800F026F905E078680A
:10256C0000F019F9786800F028F97B6800221A77D6
:10257C00BB6803F00103002B0CD0FB6803F00103D4
:10258C00002B07D07B681B686FF001021A6178681A
:10259C00FEF73AFEBB6803F08003002B0CD0FB68FF
:1025AC0003F08003002B07D07B681B686FF0800260
:1025BC001A61786800F06FFABB6803F04003002BD7
:1025CC000CD0FB6803F04003002B07D07B681B6822
:1025DC006FF040021A61786800F0F8F8BB6803F0FD
:1025EC002003002B0CD0FB6803F02003002B07D03A
:1025FC007B681B686FF020021A61786800F042FA61
:10260C0000BF1037BD4680BD80B584B000AF786088
:10261C0039600023FB737B6893F83C30012B01D1AC
:10262C000223B4E07B68012283F83C207B68022201
:10263C0083F83D207B681B689B68BB60BB6823F0FC
:10264C007703BB60BB6823F47F43BB607B681B686C
:10265C00BA689A603B681B68B3F5005F3ED0B3F56F
:10266C00005F00F28780B3F5805F00F08680B3F5E1
:10267C00805F7FD8702B1AD0702B7BD8602B50D0FA
:10268C00602B77D8502B3CD0502B73D8402B58D084
:10269C00402B6FD8302B64D0302B6BD8202B60D0D4
:1026AC00202B67D8002B5CD0102B5AD062E07B68B3
:1026BC0018683B6899683B685A683B68DB6800F0AF
:1026CC006AF97B681B689B68BB60BB6843F0770347
:1026DC00BB607B681B68BA689A604FE07B681868BF
:1026EC003B6899683B685A683B68DB6800F053F9B3
:1026FC007B681B689A687B681B6842F480429A600E
:10270C003CE07B6818683B6859683B68DB681A4694
:10271C0000F0CAF87B681B685021184600F021F9BC
:10272C002CE07B6818683B6859683B68DB681A4684
:10273C0000F0E8F87B681B686021184600F011F97E
:10274C001CE07B6818683B6859683B68DB681A4674
:10275C0000F0AAF87B681B684021184600F001F9CC
:10276C000CE07B681A683B681B681946104600F041
:10277C00F8F803E00123FB7300E000BF7B68012243
:10278C0083F83D207B68002283F83C20FB7B1846B5
:10279C001037BD4680BD80B483B000AF786000BFF9
:1027AC000C37BD4680BC704780B483B000AF7860F6
:1027BC0000BF0C37BD4680BC704780B483B000AFFF
:1027CC00786000BF0C37BD4680BC704780B483B0C6
:1027DC0000AF786000BF0C37BD4680BC704700006E
:1027EC0080B485B000AF786039607B681B68FB6093
:1027FC007B682B4A934207D07B68B3F1804F03D0A0
:10280C007B68284A934208D1FB6823F07003FB6075
:10281C003B685B68FA681343FB607B68204A934211
:10282C0007D07B68B3F1804F03D07B681D4A93427D
:10283C0008D1FB6823F44073FB603B68DB68FA68E3
:10284C001343FB60FB6823F080023B685B69134316
:10285C00FB607B68FA681A603B689A687B68DA628E
:10286C003B681A687B689A627B680D4A934203D175
:10287C003B681A697B681A637B6801225A617B6822
:10288C001B6903F00103002B05D07B681B6923F047
:10289C0001027B681A6100BF1437BD4680BC7047CB
:1028AC00002C01400004004080B487B000AFF860F9
:1028BC00B9607A60FB681B6A7B61FB681B6A23F05A
:1028CC000102FB681A62FB689B693B613B6923F060
:1028DC00F0033B617B681B013A6913433B617B69E5
:1028EC0023F00A037B617A69BB6813437B61FB6845
:1028FC003A699A61FB687A691A6200BF1C37BD4657
:10290C0080BC704780B487B000AFF860B9607A6063
:10291C00FB681B6A7B61FB681B6A23F01002FB6877
:10292C001A62FB689B693B613B6923F470433B6112
:10293C007B681B033A6913433B617B6923F0A0035B
:10294C007B61BB681B017A6913437B61FB683A6945
:10295C009A61FB687A691A6200BF1C37BD4680BC5D
:10296C00704780B485B000AF786039607B689B6835
:10297C00FB60FB6823F07003FB603A68FB68134351
:10298C0043F00703FB607B68FA689A6000BF14375A
:10299C00BD4680BC704780B487B000AFF860B960AA
:1029AC007A603B60FB689B687B617B6923F47F43A7
:1029BC007B613B681A027B681A43BB6813437A69D4
:1029CC0013437B61FB687A699A6000BF1C37BD4674
:1029DC0080BC704780B485B000AF786039607B688C
:1029EC0093F83C30012B01D1022341E07B6801229A
:1029FC0083F83C207B68022283F83D207B681B68AF
:102A0C005B68FB607B681B689B68BB60FB6823F0A2
:102A1C007003FB603B681B68FA681343FB607B68C0
:102A2C001B68FA685A607B681B68144A934209D089
:102A3C007B681B68B3F1804F04D07B681B68104A1D
:102A4C0093420CD1BB6823F08003BB603B685B688E
:102A5C00BA681343BB607B681B68BA689A607B6872
:102A6C00012283F83D207B68002283F83C20002360
:102A7C0018461437BD4680BC704700BF002C01407F
:102A8C000004004080B483B000AF786000BF0C3706
:102A9C00BD4680BC704780B483B000AF786000BF87
:102AAC000C37BD4680BC704770B500260C4D0D4CE4
:102ABC00641BA410A64209D100F022F800260A4D8E
:102ACC000A4C641BA410A64205D170BD55F8043BFA
:102ADC0098470136EEE755F8043B98470136F2E784
:102AEC00542B0008542B0008542B0008582B0008BA
:102AFC0003460244934200D1704703F8011BF9E7E7
:102B0C00F8B500BFF8BC08BC9E467047F8B500BFCE
:082B1C00F8BC08BC9E4670479E
:102B24003F065B4F666D7D077F6F0000000000006D
:102B3400000000000102030406070809020304055B
:102B4400060708090A0B0C0D0E0F101001020000F5
:042B54003101000843
:042B58000D01000863
:102B5C000100000001000000010000000100000065
:102B6C00C80000000100000001000000010000008E
:102B7C0001000000C800000001000000010000007E
:102B8C000100000001000000C8000000010000006E
:102B9C00010000000100000001000000C80000005E
:0C2BAC0000127A00100000000100000080
:040000050800149546
:00000001FF
