:020000040800F2
:100000000028002009150008991400089F14000812
:10001000A5140008AB140008B1140008000000008B
:10002000000000000000000000000000B7140008FD
:10003000C314000800000000CF140008DB140008FF
:1000400051150008511500085115000851150008F8
:1000500051150008511500085115000851150008E8
:1000600051150008511500085115000851150008D8
:1000700051150008511500085115000851150008C8
:1000800051150008511500085115000851150008B8
:1000900051150008511500085115000851150008A8
:1000A0005115000851150008511500085115000898
:1000B000E91400085115000800000000511500085F
:1000C0005115000800000000000000005115000854
:1000D0000000000051150008511500080000000044
:1000E00051150008511500085115000800000000C6
:1000F0000000000000000000000000000000000000
:0C01000000000000000000005FF808F1A3
:10010C0010B5054C237833B9044B13B10448AFF345
:10011C0000800123237010BD64000020000000004B
:10012C00802B000808B5034B1BB103490348AFF300
:10013C00008008BD0000000068000020802B000833
:10014C0080B400AF064B1B68012B04D1044B00227A
:10015C001A60012300E000231846BD4680BC70479E
:10016C008000002080B400AF034B01221A6000BF56
:10017C00BD4680BC704700BF8000002080B500AF3A
:10018C00224B1B68224A1360224B1B681F4A1360C8
:10019C004FF40061204801F0C1FC03461A461D4B88
:1001AC001A601B4B1A68194B1B689A422BD1174BC0
:1001BC001A68184B1B689A4225D1184B1A68154BB4
:1001CC001B689A420DD0134B1B68144A1360114BD9
:1001DC001B68002B17D1124BC8221A60FFF7C2FF05
:1001EC0011E00F4B1B68013B0D4A13600C4B1B6855
:1001FC00002B08D1074B1B68002B01D1FFF7B2FF76
:10020C00074BC8221A6000BF80BD00BF040000204D
:10021C000000002008000020000801400C00002015
:10022C001000002080B400AF064B1B68012B04D1DA
:10023C00044B00221A60012300E000231846BD463F
:10024C0080BC70478400002080B400AF034B0122B7
:10025C001A6000BFBD4680BC704700BF8400002000
:10026C0080B500AF224B1B68224A1360224B1B68DF
:10027C001F4A13604FF48051204801F04FFC034695
:10028C001A461D4B1A601B4B1A68194B1B689A4275
:10029C002BD1174B1A68184B1B689A4225D1184B57
:1002AC001A68154B1B689A420DD0134B1B68144AE5
:1002BC001360114B1B68002B17D1124BC8221A600C
:1002CC00FFF7C2FF11E00F4B1B68013B0D4A136097
:1002DC000C4B1B68002B08D1074B1B68002B01D162
:1002EC00FFF7B2FF074BC8221A6000BF80BD00BFEA
:1002FC0018000020140000201C0000200008014001
:10030C00200000202400002080B400AF064B1B68A6
:10031C00012B04D1044B00221A60012300E00023BE
:10032C001846BD4680BC70478800002080B400AFE2
:10033C00034B01221A6000BFBD4680BC704700BF52
:10034C008800002080B500AF224B1B68224A136046
:10035C00224B1B681F4A13604FF40051204801F0D8
:10036C00DDFB03461A461D4B1A601B4B1A68194BD2
:10037C001B689A422BD1174B1A68184B1B689A4270
:10038C0025D1184B1A68154B1B689A420DD0134B8C
:10039C001B68144A1360114B1B68002B17D1124BAE
:1003AC00C8221A60FFF7C2FF11E00F4B1B68013B1C
:1003BC000D4A13600C4B1B68002B08D1074B1B68B4
:1003CC00002B01D1FFF7B2FF074BC8221A6000BF08
:1003DC0080BD00BF2C000020280000203000002031
:1003EC0000080140340000203800002080B500AF28
:1003FC00FFF7C4FEFFF734FFFFF7A4FF00BF80BD7B
:10040C0080B500AF8B4B1B68013B042B00F21682AE
:10041C0001A252F823F000BF390400086904000857
:10042C005B050008690600086507000800F032FD4E
:10043C00804B02221A60804B1B68642202FB03F380
:10044C00184600F037FF322000F062FF642000F005
:10045C008DFF794B1B68794A1360F9E10122202149
:10046C00774801F072FB00224021754801F06DFBCA
:10047C0001228021724801F068FB00224FF4807148
:10048C006F4801F062FB00224FF400716C4801F0E0
:10049C005CFB00224FF48061694801F056FB674B0E
:1004AC001968684B83FB01239A10CB17D21A134699
:1004BC009B0013445B00CA1A634B1A605F4B1B68AA
:1004CC00604A82FB03129210DB17D31A5E4A536008
:1004DC005A4B1A685D4B1B68D1185A4B83FB01238E
:1004EC009A10CB17D21A13469B0013445B00CA1AFE
:1004FC00554B9A60514B1A68544B1B681344514A24
:10050C0082FB03129210DB17D31A4F4AD360504B65
:10051C001B68012B0ED1474B03221A604B4B1B68F7
:10052C00464A1360494B1B68642202FB03F31846CE
:10053C0000F0C0FEFFF704FE0346012B40F0818162
:10054C003C4B0C221A60434B01221A6079E10122C8
:10055C0020213B4801F0F9FA01224021384801F0F2
:10056C00F4FA00228021364801F0EFFA00224FF411
:10057C008071334801F0E9FA00224FF400713048E1
:10058C0001F0E3FA00224FF480612D4801F0DDFA0E
:10059C002A4B19682B4B83FB01239A10CB17D21AC9
:1005AC0013469B0013445B00CA1A274B1A60234B5B
:1005BC001B68244A82FB03129210DB17D31A224ABF
:1005CC0053601E4B19681F4B83FB01239A10CB17EA
:1005DC00D21A13469B0013445B00CA1A1A4B9A603A
:1005EC00164B1B68174A82FB03129210DB17D31AA7
:1005FC00154AD360164B1B68012B0ED10D4B0422F0
:10060C001A60154B1B680D4A13600B4B1B68642258
:10061C0002FB03F3184600F04DFEFFF791FD034675
:10062C00012B40F01081034B0C221A60094B012264
:10063C001A6008E18C0000203C000020940000208F
:10064C0000080140676666664800002040000020F4
:10065C00A80000209000002044000020002220214F
:10066C007C4801F072FA002240217A4801F06DFAC0
:10067C0000228021774801F068FA01224FF4807142
:10068C00744801F062FA00224FF40071714801F0D5
:10069C005CFA01224FF480616E4801F056FA6E4B01
:1006AC001A686E4B1B68D1186D4B83FB01239A1093
:1006BC00CB17D21A13469B0013445B00CA1A694B22
:1006CC001A60654B1A68654B1B681344644A82FBBD
:1006DC0003129210DB17D31A624A53605E4B1A68EE
:1006EC005E4B1B68D11A5E4B83FB01239A10CB1710
:1006FC00D21A13469B0013445B00CA1A594B9A60DA
:10070C00554B1A68554B1B68D31A554A82FB03127A
:10071C009210DB17D31A534AD360534B1B68012B2F
:10072C000ED1524B05221A604C4B1B684A4A13607F
:10073C004A4B1B68642202FB03F3184600F0BAFD17
:10074C00FFF7FEFC0346012B7FD1484B0C221A60AD
:10075C00474B01221A6078E0002220213D4801F02D
:10076C00F4F9002240213B4801F0EFF900228021EE
:10077C00384801F0EAF901224FF48071354801F054
:10078C00E4F901224FF40071324801F0DEF9002245
:10079C004FF480612F4801F0D8F92F4B1968304B7A
:1007AC0083FB01239A10CB17D21A13469B001344D8
:1007BC005B00CA1A2B4B1A60274B1B68284A82FB1A
:1007CC0003129210DB17D31A264A5360224B196876
:1007DC00234B83FB01239A10CB17D21A13469B0091
:1007EC0013445B00CA1A1F4B9A601B4B1B681C4AB4
:1007FC0082FB03129210DB17D31A1A4AD3601A4BDE
:10080C001B68012B0ED1194B02221A60194B1B6865
:10081C00114A1360174B1B68642202FB03F3184642
:10082C0000F048FDFFF78CFC0346012B0FD10F4B5A
:10083C000C221A600E4B01221A6008E000F026F917
:10084C0006E000BF04E000BF02E000BF00E000BF14
:10085C0000BF80BD00080140940000204000002033
:10086C006766666648000020A80000208C00002007
:10087C00900000203C00002080B582B000AF786072
:10088C0001220221194801F060F9012204211748C4
:10089C0001F05BF97B68002B03D07B68012B10D037
:1008AC001FE000220221114801F04FF9104B1B6888
:1008BC00184600F009FA0E4B5B68184600F074FA03
:1008CC000FE000220421094801F03FF9084B9B6816
:1008DC00184600F0F9F9064BDB68184600F064FA8C
:1008EC0000BF00BF0837BD4680BD00BF00080140F7
:1008FC004800002080B400AF174B1968174B83FBDE
:10090C0001239A10CB17D21A13469B0013445B0099
:10091C00CA1A134B1A60104B1B68104A82FB031245
:10092C009210DB17D31A0E4A53600E4B19680B4BFF
:10093C0083FB01239A10CB17D21A13469B00134446
:10094C005B00CA1A064B9A60054B0022DA6000BFA6
:10095C00BD4680BC704700BF90000020676666668D
:10096C00480000208C00002080B489B000AF786073
:10097C000023FB610023BB617B685E2B33D07B685B
:10098C005E2B70DC7B685C2B03D07B685D2B4AD0C4
:10099C0069E03B4B1A683B4B1B681344FB613A4BB9
:1009AC001A68FB69D31ABB61354B1A68BB691344CF
:1009BC00334A1360324B1B68632B56DD304B1B687C
:1009CC00633BFB602E4B63221A602E4B1A68FB684C
:1009DC0013442C4A13602B4B1B68632B45DD294BAE
:1009EC0063221A6041E0264B1A68264B1B6813449D
:1009FC00254A1360244B1B68632B38DD224B1B6884
:100A0C00633B7B61204B63221A601E4B1A687B6927
:100A1C00D31A1C4A13601B4B1B68002B27DC194B89
:100A2C0001221A6023E0164B1A68164B1B681344FC
:100A3C00154A1360144B1B68632B1ADD124B1B6891
:100A4C00633B3B61104B63221A600D4B1A683B6988
:100A5C00D31A0B4A13600A4B1B68002B09DC084B9A
:100A6C0001221A6005E000BF04E000BF02E000BFF5
:100A7C0000E000BF00BF2437BD4680BC704700BFFC
:100A8C003C000020400000204400002080B500AF56
:100A9C00864B1B680E2B5CD00E2B00F3FD800C2BB1
:100AAC0003D00D2B00F0A580F6E0814B1B68012BC9
:100ABC000BD1642000F02CFC20217E4801F05DF865
:100ACC004FF480717B4801F058F80022402179489E
:100ADC0001F03BF800228021764801F036F8002224
:100AEC004FF40071734801F030F800224FF480612C
:100AFC00704801F02AF8FFF7FDFEFFF793FB034661
:100B0C00012B0DD16C4B1B6801336B4A13606A4B84
:100B1C001B68632B02DD684B01221A60FFF7EAFEAB
:100B2C00FFF70EFB0346012B05D1604B0D221A601B
:100B3C00614B01221A60FFF7E7FB0346012B40F0E3
:100B4C00AD805D4B1B685D4A13605C20FFF70CFFAA
:100B5C00A4E0574B1B68012B0BD1322000F0D8FBC3
:100B6C008021544801F009F84FF48061514801F09C
:100B7C0004F8012220214F4800F0E7FF0022402119
:100B8C004C4800F0E2FF01224FF48071494800F01C
:100B9C00DCFF00224FF40071464800F0D6FFFFF74F
:100BAC00A9FEFFF73FFB0346012B0DD1424B1B68FF
:100BBC000133414A1360404B1B68632B02DD3E4BF3
:100BCC0001221A60FFF796FEFFF7BAFA0346012BD3
:100BDC0002D1364B02221A60FFF796FB0346012B1B
:100BEC005ED1354B1B68364A13605C20FFF7BCFEA8
:100BFC0056E02F4B1B68012B0BD1322000F088FBE9
:100C0C0040212C4800F0B9FF4FF40071294800F046
:100C1C00B4FF01222021274800F097FF00228021F9
:100C2C00244800F092FF01224FF48071214800F01B
:100C3C008CFF00224FF480611E4800F086FFFFF706
:100C4C0059FEFFF7EFFA0346012B0DD11A4B1B6827
:100C5C000133194A1360184B1B68632B02DD164BCA
:100C6C0001221A60FFF746FEFFF76AFA0346012BD2
:100C7C0005D10E4B0E221A600F4B01221A60FFF7A2
:100C8C0043FB0346012B0DD10B4B1B680D4A136024
:100C9C005C20FFF769FE05E000BF04E000BF02E046
:100CAC0000BF00E000BF00BF80BD00BF8C00002073
:100CBC00B0000020000801409000002044000020FB
:100CCC003C0000204000002080B584B000AF78606C
:100CDC007B68092B60DC324A7B6813441B78FB73FE
:100CEC00FB7B03F00103002B0CBF01230023DBB2C1
:100CFC001A4601212B4800F028FFFB7B03F002036E
:100D0C00002B0CBF01230023DBB21A46022125481D
:100D1C0000F01BFFFB7B03F00403002B0CBF012333
:100D2C000023DBB21A4604211E4800F00EFFFB7BA9
:100D3C0003F00803002B0CBF01230023DBB21A467F
:100D4C000821184800F001FFFB7B03F01003002B77
:100D5C000CBF01230023DBB21A461021114800F00E
:100D6C00F4FEFB7B03F02003002B0CBF01230023BC
:100D7C00DBB21A4620210B4800F0E7FEFB7B03F0A8
:100D8C004003002B0CBF01230023DBB21A46402189
:100D9C00044800F0DAFE00E000BF1037BD4680BD0D
:100DAC00982B0008000C014080B584B000AF78602F
:100DBC007B68092B66DC354A7B6813441B78FB7314
:100DCC00FB7B03F00103002B0CBF01230023DBB2E0
:100DDC001A4680212E4800F0B8FEFB7B03F002037C
:100DEC00002B0CBF01230023DBB21A464FF4807199
:100DFC00274800F0AAFEFB7B03F00403002B0CBF7A
:100E0C0001230023DBB21A464FF40071204800F096
:100E1C009CFEFB7B03F00803002B0CBF012300237B
:100E2C00DBB21A464FF48061194800F08EFEFB7B52
:100E3C0003F01003002B0CBF01230023DBB21A4676
:100E4C004FF40061124800F080FEFB7B03F020039E
:100E5C00002B0CBF01230023DBB21A464FF4805148
:100E6C000B4800F072FEFB7B03F04003002B0CBF21
:100E7C0001230023DBB21A464FF40051044800F062
:100E8C0064FE00E000BF1037BD4680BD982B000803
:100E9C00000C014080B500AF00222021364800F044
:100EAC0054FE01224021344800F04FFE01228021E3
:100EBC00314800F04AFE00224FF480712E4800F0B9
:100ECC0044FE01224FF400712B4800F03EFE01223B
:100EDC004FF48061284800F038FE00220121274899
:100EEC0000F033FE00220221244800F02EFE0022E6
:100EFC000421224800F029FE002208211F4800F09E
:100F0C0024FE002210211D4800F01FFE002220218B
:100F1C001A4800F01AFE00224021184800F015FE75
:100F2C0000228021154800F010FE00224FF4807141
:100F3C00124800F00AFE00224FF400710F4800F036
:100F4C0004FE00224FF480610C4800F0FEFD0022EC
:100F5C004FF40061094800F0F8FD00224FF4805175
:100F6C00064800F0F2FD00224FF40051034800F057
:100F7C00ECFD00BF80BD00BF00080140000C01402B
:100F8C0080B500AF00F0E0FA00F05CF800F0E2F899
:100F9C0000F094F8214801F035FA214B01221A6037
:100FAC00204B00221A60204B03221A601F4B052293
:100FBC001A601F4B02221A60642000F04DF9FFF7F3
:100FCC001FFA1C4B1B68012B0FD110211A4800F083
:100FDC00D4FD144B1B68002B04DB124B1B68013B2C
:100FEC00104A1360642000F037F9144B1B68012B76
:100FFC00E5D1322000F0BAF9114B1B681846FFF707
:10100C003BFC0F4B1B6801330D4A13600C4B1B68E8
:10101C00012BD4DD0A4B00221A60D0E7BC00002063
:10102C008C000020940000203C0000204400002094
:10103C0040000020A000002000080140B800002063
:10104C009800002080B590B000AF07F1180328225B
:10105C000021184601F086FD3B1D00221A605A60E3
:10106C009A60DA601A610223BB610123BB62102310
:10107C00FB6200237B6307F11803184600F096FD12
:10108C000346002B01D000F0E1F80F237B60002316
:10109C00BB600023FB6000233B6100237B613B1D95
:1010AC000021184601F002F80346002B01D000F095
:1010BC00CDF800BF4037BD4680BD000080B586B07E
:1010CC0000AF07F1080300221A605A609A60DA60D8
:1010DC003B4600221A605A601D4B4FF080421A604A
:1010EC001B4B41F63F725A60194B00229A60184B09
:1010FC000922DA60164B00221A61154B00229A6104
:10110C00134801F02FF90346002B01D000F09EF894
:10111C004FF48053BB6007F1080319460C4801F0EB
:10112C00ADFA0346002B01D000F090F800233B6091
:10113C0000237B603B461946054801F085FC0346BD
:10114C00002B01D000F082F800BF1837BD4680BDDF
:10115C00BC00002080B586B000AF07F10803002268
:10116C001A605A609A60DA602F4B9B692E4A43F0E2
:10117C00040393612C4B9B6903F004037B607B6835
:10118C00294B9B69284A43F008039361264B9B69C2
:10119C0003F008033B603B68002240F2F6712348E1
:1011AC0000F0D3FC002243F6FF71214800F0CDFC87
:1011BC0040F2F673BB600123FB6000233B6102230A
:1011CC007B6107F108031946184800F02DFB43F624
:1011DC00FF73BB600123FB6000233B6102237B6137
:1011EC0007F108031946124800F01EFB4FF4605338
:1011FC00BB600023FB6001233B6107F10803194628
:10120C000A4800F011FB4FF44043BB600023FB6025
:10121C0000233B6107F108031946044800F004FB66
:10122C0000BF1837BD4680BD0010024000080140C9
:10123C00000C014080B582B000AF786000F0C4F8BB
:10124C00FFF7D4F800BF0837BD4680BD80B400AFAF
:10125C0072B600BFFEE7000080B483B000AF7860C8
:10126C00054A7B681360054B00221A6000BF0C37DF
:10127C00BD4680BC704700BF9C000020A000002031
:10128C0080B400AF094B1B68002B0BDD074B1B68B0
:10129C00013B064A1360054B1B68002B02DC044B18
:1012AC0001221A6000BFBD4680BC70479C00002024
:1012BC00A000002080B483B000AF7860054A7B6842
:1012CC001360054B00221A6000BF0C37BD4680BC72
:1012DC00704700BFA4000020A800002080B400AF1D
:1012EC00094B1B68002B0BDD074B1B68013B064AA7
:1012FC001360054B1B68002B02DC044B01221A60A7
:10130C0000BFBD4680BC7047A4000020A800002090
:10131C0080B483B000AF7860054A7B681360054BDE
:10132C0000221A6000BF0C37BD4680BC704700BF5E
:10133C00AC000020B000002080B400AF094B1B684B
:10134C00002B0BDD074B1B68013B064A1360054B5A
:10135C001B68002B02DC044B01221A6000BFBD4647
:10136C0080BC7047AC000020B000002080B483B07B
:10137C0000AF7860054A7B681360054B00221A6049
:10138C0000BF0C37BD4680BC704700BFB4000020C6
:10139C00B800002080B400AF094B1B68002B0BDD9C
:1013AC00074B1B68013B064A1360054B1B68002B5F
:1013BC0002DC044B01221A6000BFBD4680BC7047A2
:1013CC00B4000020B800002080B500AFFFF786FF06
:1013DC00FFF7B2FFFFF7DEFFFFF752FF00BF80BD44
:1013EC0080B485B000AF154B9B69144A43F00103E0
:1013FC009361124B9B6903F00103BB60BB680F4BFD
:10140C00DB690E4A43F08053D3610C4BDB6903F06C
:10141C0080537B607B680A4B5B68FB60FB6823F046
:10142C00E063FB60FB6843F08063FB60044AFB688D
:10143C00536000BF1437BD4680BC7047001002409B
:10144C000000014080B584B000AF78607B681B68F9
:10145C00B3F1804F13D10C4BDB690B4A43F0010302
:10146C00D361094BDB6903F00103FB60FB680022CD
:10147C0000211C2000F0A1F91C2000F0BAF900BFDB
:10148C001037BD4680BD00BF0010024080B400AFD5
:10149C00FEE780B400AFFEE780B400AFFEE780B497
:1014AC0000AFFEE780B400AFFEE780B400AF00BF32
:1014BC00BD4680BC704780B400AF00BFBD4680BC49
:1014CC00704780B400AF00BFBD4680BC704780B58C
:1014DC0000AF00F07FF800BF80BD000080B500AF0A
:1014EC00024800F0DBFF00BF80BD00BFBC00002045
:1014FC0080B400AF00BFBD4680BC7047FFF7F8FF5B
:10150C000B480C490C4A002302E0D458C450043355
:10151C00C4188C42F9D3094A094C002301E013602A
:10152C000432A242FBD301F0F9FAFFF729FD704710
:10153C000000002064000020D02B00086400002074
:10154C0008010020FEE7000080B500AF084B1B68C7
:10155C00074A43F010031360032000F023F90F2017
:10156C0000F008F8FFF73CFF0023184680BD00BFD1
:10157C000020024080B582B000AF7860124B1A6830
:10158C00124B1B7819464FF47A73B3FBF1F3B2FB91
:10159C00F3F3184600F03BF90346002B01D001236E
:1015AC000EE07B680F2B0AD8002279684FF0FF30D1
:1015BC0000F003F9064A7B681360002300E0012366
:1015CC0018460837BD4680BD58000020600000203A
:1015DC005C00002080B400AF054B1B781A46054B0D
:1015EC001B681344034A136000BFBD4680BC7047A0
:1015FC00600000200401002080B400AF024B1B6887
:10160C001846BD4680BC70470401002080B485B0EC
:10161C0000AF78607B6803F00703FB600C4BDB6862
:10162C00BB60BA684FF6FF031340BB60FB681A023D
:10163C00BB68134343F0BF6343F40033BB60044AFD
:10164C00BB68D36000BF1437BD4680BC704700BF79
:10165C0000ED00E080B400AF044BDB681B0A03F024
:10166C0007031846BD4680BC704700BF00ED00E084
:10167C0080B483B000AF0346FB7197F90730002BA1
:10168C000BDBFB7903F01F02064997F907305B0966
:10169C00012000FA02F241F8232000BF0C37BD46AE
:1016AC0080BC704700E100E080B483B000AF03461B
:1016BC003960FB7197F90730002B0ADB3B68DAB213
:1016CC000C4997F907301201D2B20B4483F800236E
:1016DC000AE03B68DAB20849FB7903F00F03043BDC
:1016EC001201D2B20B441A7600BF0C37BD4680BC37
:1016FC00704700BF00E100E000ED00E080B489B06D
:10170C0000AFF860B9607A60FB6803F00703FB6117
:10171C00FB69C3F10703042B28BF0423BB61FB69DE
:10172C000433062B02D9FB69033B00E000237B61E9
:10173C004FF0FF32BB6902FA03F3DA43BB681A407D
:10174C007B699A404FF0FF317B6901FA03F3D9436F
:10175C007B680B40134318462437BD4680BC70474A
:10176C0080B582B000AF78607B68013BB3F1807FBD
:10177C0001D301230FE00A4A7B68013B53600F2120
:10178C004FF0FF30FFF790FF054B00229A60044B9F
:10179C0007221A60002318460837BD4680BD00BFDB
:1017AC0010E000E080B582B000AF78607868FFF799
:1017BC002DFF00BF0837BD4680BD80B586B000AF99
:1017CC000346B9607A60FB7300237B61FFF742FF2D
:1017DC0078617A68B9687869FFF790FF024697F9E3
:1017EC000F3011461846FFF75FFF00BF1837BD4694
:1017FC0080BD80B582B000AF0346FB7197F907300E
:10180C001846FFF735FF00BF0837BD4680BD80B5D1
:10181C0082B000AF78607868FFF7A2FF03461846E5
:10182C000837BD4680BD000080B48BB000AF786037
:10183C00396000237B6200233B6248E101227B6A12
:10184C0002FA03F3FB613B681B68FA691340BB6146
:10185C00BA69FB699A4240F037813B685B68A34ADE
:10186C0093425ED0A14A934275D8A14A934258D074
:10187C009F4A93426FD89F4A934252D09D4A9342BB
:10188C0069D89D4A93424CD09B4A934263D89B4A59
:10189C00934246D0994A93425DD8122B2AD8122BE8
:1018AC0059D801A252F823F02F1900080919000881
:1018BC001B1900085D19000863190008631900085A
:1018CC0063190008631900086319000863190008FC
:1018DC0063190008631900086319000863190008EC
:1018EC00631900086319000863190008111900082E
:1018FC0025190008824A934213D02CE03B68DB6820
:10190C003B6229E03B68DB6804333B6224E03B68C4
:10191C00DB6808333B621FE03B68DB680C333B62DF
:10192C001AE03B689B68002B02D104233B6213E056
:10193C003B689B68012B05D108233B627B68FA69E5
:10194C001A6109E008233B627B68FA695A6103E07B
:10195C0000233B6200E000BFBB69FF2B01D87B6812
:10196C0001E07B6804337B61BB69FF2B02D87B6A87
:10197C009B0002E07B6A083B9B003B617B691A6819
:10198C000F213B6901FA03F3DB431A40396A3B69C7
:10199C0001FA03F31A437B691A603B685B6803F036
:1019AC008053002B00F09080564B9B69554A43F0B6
:1019BC0001039361534B9B6903F00103BB60BB684C
:1019CC00514A7B6A9B08023352F82330FB607B6AD6
:1019DC0003F003039B000F2202FA03F3DB43FA68C4
:1019EC001340FB607B68494A93420DD07B68484AA0
:1019FC00934207D07B68474A934201D1022304E00B
:101A0C00032302E0012300E000237A6A02F00302C0
:101A1C0092009340FA681343FB603B497B6A9B0836
:101A2C000233FA6841F823203B685B6803F48013A7
:101A3C00002B06D0384B9A683749BB6913438B602F
:101A4C0006E0354B9A68BB69DB43334913408B6026
:101A5C003B685B6803F40013002B06D02E4BDA684E
:101A6C002D49BB691343CB6006E02B4BDA68BB698D
:101A7C00DB4329491340CB603B685B6803F40033BC
:101A8C00002B06D0244B5A682349BB6913434B6087
:101A9C0006E0214B5A68BB69DB431F4913404B607E
:101AAC003B685B6803F48033002B06D01A4B1A6832
:101ABC001949BB6913430B6006E0174B1A68BB69E5
:101ACC00DB43154913400B607B6A01337B623B6837
:101ADC001A687B6A22FA03F3002B7FF4AFAE00BFC7
:101AEC0000BF2C37BD4680BC704700BF00003210D1
:101AFC000000311000002210000021100000121014
:101B0C0000001110001002400000014000080140CC
:101B1C00000C0140001001400004014080B485B06D
:101B2C0000AF78600B467B807B689A687B8813409B
:101B3C00002B02D00123FB7301E00023FB73FB7B22
:101B4C0018461437BD4680BC704780B483B000AFD4
:101B5C0078600B467B8013467B707B78002B03D020
:101B6C007A887B681A6103E07B881A047B681A61A7
:101B7C0000BF0C37BD4680BC704780B485B000AF49
:101B8C0078600B467B807B68DB68FB607A88FB683F
:101B9C0013401A04FB68D9437B880B401A437B68BB
:101BAC001A6100BF1437BD4680BC704780B586B043
:101BBC0000AF78607B68002B01D101236CE27B685D
:101BCC001B6803F00103002B00F08780924B5B68CD
:101BDC0003F00C03042B0CD08F4B5B6803F00C034D
:101BEC00082B12D18C4B5B6803F48033B3F5803F28
:101BFC000BD1894B1B6803F40033002B6CD07B6832
:101C0C005B68002B68D1012346E27B685B68B3F507
:101C1C00803F06D1804B1B687F4A43F480331360AE
:101C2C002EE07B685B68002B0CD17B4B1B687A4ADF
:101C3C0023F480331360784B1B68774A23F480239A
:101C4C0013601DE07B685B68B3F5A02F0CD1724B61
:101C5C001B68714A43F4802313606F4B1B686E4AF8
:101C6C0043F4803313600BE06B4B1B686A4A23F41C
:101C7C0080331360684B1B68674A23F4802313601E
:101C8C007B685B68002B13D0FFF7B6FC386108E06B
:101C9C00FFF7B2FC02463B69D31A642B01D903232C
:101CAC00FAE15D4B1B6803F40033002BF0D014E019
:101CBC00FFF7A2FC386108E0FFF79EFC02463B6987
:101CCC00D31A642B01D90323E6E1534B1B6803F4AD
:101CDC000033002BF0D100E000BF7B681B6803F0E1
:101CEC000203002B63D04C4B5B6803F00C03002BFE
:101CFC000BD0494B5B6803F00C03082B1CD1464BF3
:101D0C005B6803F48033002B16D1434B1B6803F044
:101D1C000203002B05D07B681B69012B01D001232A
:101D2C00BAE13D4B1B6823F0F8027B685B69DB0072
:101D3C00394913430B603AE07B681B69002B20D0B8
:101D4C00364B01221A60FFF757FC386108E0FFF7A9
:101D5C0053FC02463B69D31A022B01D903239BE1A6
:101D6C002D4B1B6803F00203002BF0D02A4B1B6891
:101D7C0023F0F8027B685B69DB00274913430B6097
:101D8C0015E0264B00221A60FFF736FC386108E09C
:101D9C00FFF732FC02463B69D31A022B01D903230D
:101DAC007AE11D4B1B6803F00203002BF0D17B681A
:101DBC001B6803F00803002B3AD07B689B69002B4F
:101DCC0019D0174B01221A60FFF716FC386108E096
:101DDC00FFF712FC02463B69D31A022B01D90323ED
:101DEC005AE10D4B5B6A03F00203002BF0D001208B
:101DFC0000F09AFA1CE00A4B00221A60FFF7FCFB79
:101E0C0038610FE0FFF7F8FB02463B69D31A022B4F
:101E1C0008D9032340E100BF0010024000004242F9
:101E2C00800442429E4B5B6A03F00203002BE9D113
:101E3C007B681B6803F00403002B00F0A6800023D2
:101E4C00FB75974BDB6903F08053002B0DD1944B42
:101E5C00DB69934A43F08053D361914BDB6903F008
:101E6C008053BB60BB680123FB758E4B1B6803F46E
:101E7C008073002B18D18B4B1B688A4A43F48073F8
:101E8C001360FFF7B9FB386108E0FFF7B5FB0246BA
:101E9C003B69D31A642B01D90323FDE0814B1B68EA
:101EAC0003F48073002BF0D07B68DB68012B06D128
:101EBC007B4B1B6A7A4A43F0010313622DE07B686B
:101ECC00DB68002B0CD1764B1B6A754A23F001039F
:101EDC001362734B1B6A724A23F0040313621CE0F7
:101EEC007B68DB68052B0CD16D4B1B6A6C4A43F08D
:101EFC00040313626A4B1B6A694A43F001031362C1
:101F0C000BE0674B1B6A664A23F001031362644BB8
:101F1C001B6A634A23F0040313627B68DB68002BA3
:101F2C0015D0FFF769FB38610AE0FFF765FB024645
:101F3C003B69D31A41F28832934201D90323ABE0B7
:101F4C00574B1B6A03F00203002BEED014E0FFF793
:101F5C0053FB38610AE0FFF74FFB02463B69D31A8B
:101F6C0041F28832934201D9032395E04C4B1B6A12
:101F7C0003F00203002BEED1FB7D012B05D1484B66
:101F8C00DB69474A23F08053D3617B68DB69002B04
:101F9C0000F08180424B5B6803F00C03082B61D08E
:101FAC007B68DB69022B46D13F4B00221A60FFF79E
:101FBC0023FB386108E0FFF71FFB02463B69D31A8D
:101FCC00022B01D9032367E0354B1B6803F0007328
:101FDC00002BF0D17B681B6AB3F5803F08D1304BE6
:101FEC005B6823F400327B689B682D4913434B607C
:101FFC002B4B5B6823F474127B68196A7B685B6AF1
:10200C000B43274913434B60274B01221A60FFF700
:10201C00F3FA386108E0FFF7EFFA02463B69D31A8E
:10202C00022B01D9032337E01D4B1B6803F000730F
:10203C00002BF0D02FE01C4B00221A60FFF7DCFACB
:10204C00386108E0FFF7D8FA02463B69D31A022B35
:10205C0001D9032320E0124B1B6803F00073002B03
:10206C00F0D118E07B68DB69012B01D1012313E06F
:10207C000B4B5B68FB60FB6803F480327B681B6A6C
:10208C009A4206D1FB6803F470127B685B6A9A4231
:10209C0001D0012300E0002318461837BD4680BD4F
:1020AC0000100240007000406000424280B584B0D5
:1020BC0000AF786039607B68002B01D10123D0E040
:1020CC006A4B1B6803F007033A689A4210D9674BB6
:1020DC001B6823F0070265493B6813430B60634B95
:1020EC001B6803F007033A689A4201D00123B8E059
:1020FC007B681B6803F00203002B20D07B681B68F5
:10210C0003F00403002B05D0594B5B68584A43F489
:10211C00E06353607B681B6803F00803002B05D059
:10212C00534B5B68524A43F460535360504B5B68AB
:10213C0023F0F0027B689B684D4913434B607B682E
:10214C001B6803F00103002B40D07B685B68012BFC
:10215C0007D1474B1B6803F40033002B15D1012327
:10216C007FE07B685B68022B07D1414B1B6803F057
:10217C000073002B09D1012373E03D4B1B6803F066
:10218C000203002B01D101236BE0394B5B6823F078
:10219C0003027B685B68364913434B60FFF72CFAEC
:1021AC00F8600AE0FFF728FA0246FB68D31A41F2FE
:1021BC008832934201D9032353E02D4B5B6803F023
:1021CC000C027B685B689B009A42EBD1274B1B6827
:1021DC0003F007033A689A4210D2244B1B6823F091
:1021EC00070222493B6813430B60204B1B6803F02A
:1021FC0007033A689A4201D0012332E07B681B68DE
:10220C0003F00403002B08D0194B5B6823F4E06245
:10221C007B68DB68164913434B607B681B6803F0D3
:10222C000803002B09D0124B5B6823F460527B68C7
:10223C001B69DB000E4913434B6000F021F802468A
:10224C000B4B5B681B0903F00F030A49CB5C22FAAA
:10225C0003F3094A1360094B1B681846FFF78AF908
:10226C00002318461037BD4680BD00BF0020024039
:10227C0000100240A42B0008580000205C00002035
:10228C0080B487B000AF0023FB600023BB60002349
:10229C007B6100237B6000233B611E4B5B68FB6012
:1022AC00FB6803F00C03042B02D0082B03D027E0AF
:1022BC00194B3B6127E0FB689B0C03F00F03174A9B
:1022CC00D35C7B60FB6803F48033002B10D0114B84
:1022DC005B685B0C03F00103114AD35CBB607B6849
:1022EC000D4A02FB03F2BB68B2FBF3F37B6104E023
:1022FC007B680C4A02FB03F37B617B693B6102E068
:10230C00054B3B6100BF3B6918461C37BD4680BC82
:10231C00704700BF0010024000127A00B42B000876
:10232C00C42B000800093D0080B485B000AF786074
:10233C000A4B1B680A4AA2FB03235B0A7A6802FB5E
:10234C0003F3FB6000BFFB685A1EFA60002BF9D147
:10235C0000BF00BF1437BD4680BC7047580000203A
:10236C00D34D621080B582B000AF78607B68002BD3
:10237C0001D1012341E07B6893F83D30DBB2002BA7
:10238C0006D17B68002283F83C207868FFF75AF866
:10239C007B68022283F83D207B681A687B680433D3
:1023AC001946104600F056FA7B68012283F8462045
:1023BC007B68012283F83E207B68012283F83F2052
:1023CC007B68012283F840207B68012283F841203E
:1023DC007B68012283F842207B68012283F843202A
:1023EC007B68012283F844207B68012283F8452016
:1023FC007B68012283F83D20002318460837BD4630
:10240C0080BD000080B485B000AF78607B6893F825
:10241C003D30DBB2012B01D0012335E07B68022279
:10242C0083F83D207B681B68DA687B681B6842F088
:10243C000102DA607B681B68164A934209D07B68FC
:10244C001B68B3F1804F04D07B681B68124A93421F
:10245C0011D17B681B689B6803F00703FB60FB686A
:10246C00062B10D07B681B681A687B681B6842F0CF
:10247C0001021A6007E07B681B681A687B681B689E
:10248C0042F001021A60002318461437BD4680BC86
:10249C00704700BF002C01400004004080B584B0A0
:1024AC0000AF78607B681B68DB68FB607B681B682F
:1024BC001B69BB60BB6803F00203002B20D0FB68D8
:1024CC0003F00203002B1BD07B681B686FF0020229
:1024DC001A617B6801221A777B681B689B6903F081
:1024EC000303002B03D0786800F098F905E07868B6
:1024FC0000F08BF9786800F09AF97B6800221A7763
:10250C00BB6803F00403002B20D0FB6803F004032A
:10251C00002B1BD07B681B686FF004021A617B6870
:10252C0002221A777B681B689B6903F44073002BAB
:10253C0003D0786800F072F905E0786800F065F96E
:10254C00786800F074F97B6800221A77BB6803F096
:10255C000803002B20D0FB6803F00803002B1BD0D2
:10256C007B681B686FF008021A617B6804221A777B
:10257C007B681B68DB6903F00303002B03D07868CE
:10258C0000F04CF905E0786800F03FF9786800F04D
:10259C004EF97B6800221A77BB6803F01003002BFE
:1025AC0020D0FB6803F01003002B1BD07B681B684A
:1025BC006FF010021A617B6808221A777B681B681F
:1025CC00DB6903F44073002B03D0786800F026F924
:1025DC0005E0786800F019F9786800F028F97B6854
:1025EC0000221A77BB6803F00103002B0CD0FB68A8
:1025FC0003F00103002B07D07B681B686FF001020E
:10260C001A617868FEF716FEBB6803F08003002B96
:10261C000CD0FB6803F08003002B07D07B681B6891
:10262C006FF080021A61786800F06FFABB6803F0F3
:10263C004003002B0CD0FB6803F04003002B07D0A9
:10264C007B681B686FF040021A61786800F0F8F83C
:10265C00BB6803F02003002B0CD0FB6803F02003B5
:10266C00002B07D07B681B686FF020021A6178681A
:10267C0000F042FA00BF1037BD4680BD80B584B073
:10268C0000AF786039600023FB737B6893F83C30B3
:10269C00012B01D10223B4E07B68012283F83C209A
:1026AC007B68022283F83D207B681B689B68BB60BB
:1026BC00BB6823F07703BB60BB6823F47F43BB602C
:1026CC007B681B68BA689A603B681B68B3F5005F4F
:1026DC003ED0B3F5005F00F28780B3F5805F00F069
:1026EC008680B3F5805F7FD8702B1AD0702B7BD887
:1026FC00602B50D0602B77D8502B3CD0502B73D8FC
:10270C00402B58D0402B6FD8302B64D0302B6BD84B
:10271C00202B60D0202B67D8002B5CD0102B5AD0EC
:10272C0062E07B6818683B6899683B685A683B684C
:10273C00DB6800F06AF97B681B689B68BB60BB6850
:10274C0043F07703BB607B681B68BA689A604FE004
:10275C007B6818683B6899683B685A683B68DB681B
:10276C0000F053F97B681B689A687B681B6842F41D
:10277C0080429A603CE07B6818683B6859683B680B
:10278C00DB681A4600F0CAF87B681B6850211846B3
:10279C0000F021F92CE07B6818683B6859683B68AD
:1027AC00DB681A4600F0E8F87B681B686021184665
:1027BC0000F011F91CE07B6818683B6859683B68AD
:1027CC00DB681A4600F0AAF87B681B6840211846A3
:1027DC0000F001F90CE07B681A683B681B6819462D
:1027EC00104600F0F8F803E00123FB7300E000BF93
:1027FC007B68012283F83D207B68002283F83C2013
:10280C00FB7B18461037BD4680BD80B483B000AF4B
:10281C00786000BF0C37BD4680BC704780B483B075
:10282C0000AF786000BF0C37BD4680BC704780B4E9
:10283C0083B000AF786000BF0C37BD4680BC7047DA
:10284C0080B483B000AF786000BF0C37BD4680BC4D
:10285C007047000080B485B000AF786039607B6849
:10286C001B68FB607B682B4A934207D07B68B3F1F3
:10287C00804F03D07B68284A934208D1FB6823F031
:10288C007003FB603B685B68FA681343FB607B6812
:10289C00204A934207D07B68B3F1804F03D07B680A
:1028AC001D4A934208D1FB6823F44073FB603B68DC
:1028BC00DB68FA681343FB60FB6823F080023B681B
:1028CC005B691343FB607B68FA681A603B689A6823
:1028DC007B68DA623B681A687B689A627B680D4A8F
:1028EC00934203D13B681A697B681A637B680122A7
:1028FC005A617B681B6903F00103002B05D07B68D0
:10290C001B6923F001027B681A6100BF1437BD46B6
:10291C0080BC7047002C01400004004080B487B09C
:10292C0000AFF860B9607A60FB681B6A7B61FB687A
:10293C001B6A23F00102FB681A62FB689B693B610E
:10294C003B6923F0F0033B617B681B013A6913433D
:10295C003B617B6923F00A037B617A69BB68134393
:10296C007B61FB683A699A61FB687A691A6200BFFD
:10297C001C37BD4680BC704780B487B000AFF86090
:10298C00B9607A60FB681B6A7B61FB681B6A23F089
:10299C001002FB681A62FB689B693B613B6923F47C
:1029AC0070433B617B681B033A6913433B617B6952
:1029BC0023F0A0037B61BB681B017A6913437B6125
:1029CC00FB683A699A61FB687A691A6200BF1C3726
:1029DC00BD4680BC704780B485B000AF786039606C
:1029EC007B689B68FB60FB6823F07003FB603A68B4
:1029FC00FB68134343F00703FB607B68FA689A603B
:102A0C0000BF1437BD4680BC704780B487B000AFA0
:102A1C00F860B9607A603B60FB689B687B617B699E
:102A2C0023F47F437B613B681A027B681A43BB68C3
:102A3C0013437A6913437B61FB687A699A6000BF20
:102A4C001C37BD4680BC704780B485B000AF786041
:102A5C0039607B6893F83C30012B01D1022341E0B3
:102A6C007B68012283F83C207B68022283F83D209E
:102A7C007B681B685B68FB607B681B689B68BB6042
:102A8C00FB6823F07003FB603B681B68FA68134318
:102A9C00FB607B681B68FA685A607B681B68144A89
:102AAC00934209D07B681B68B3F1804F04D07B68DC
:102ABC001B68104A93420CD1BB6823F08003BB60A7
:102ACC003B685B68BA681343BB607B681B68BA6879
:102ADC009A607B68012283F83D207B68002283F892
:102AEC003C20002318461437BD4680BC704700BFFD
:102AFC00002C01400004004080B483B000AF78602B
:102B0C0000BF0C37BD4680BC704780B483B000AFAB
:102B1C00786000BF0C37BD4680BC704770B500268E
:102B2C000C4D0D4C641BA410A64209D100F022F8E8
:102B3C0000260A4D0A4C641BA410A64205D170BD98
:102B4C0055F8043B98470136EEE755F8043B984797
:102B5C000136F2E7C82B0008C82B0008C82B000868
:102B6C00CC2B000803460244934200D1704703F873
:102B7C00011BF9E7F8B500BFF8BC08BC9E467047CE
:0C2B8C00F8B500BFF8BC08BC9E467047BE
:102B98003F065B4F666D7D077F6F000000000000F9
:102BA80000000000010203040607080902030405E7
:102BB800060708090A0B0C0D0E0F10100102000081
:042BC80031010008CF
:042BCC000D010008EF
:102BD00001000000010000000100000001000000F1
:102BE000C80000000100000001000000010000001A
:102BF00001000000C800000001000000010000000A
:102C00000100000001000000C800000003000000F7
:102C100002000000050000000100000002000000AA
:102C2000030000000400000000127A001000000001
:042C3000010000009F
:0400000508001509D1
:00000001FF
