:020000040800F2
:1000000000280020310F0008C10E0008C70E0008AC
:10001000CD0E0008D30E0008D90E00080000000025
:10002000000000000000000000000000DF0E0008DB
:10003000EB0E000800000000F70E0008030F000898
:10004000790F0008790F0008790F0008790F000870
:10005000790F0008790F0008790F0008790F000860
:10006000790F0008790F0008790F0008790F000850
:10007000790F0008790F0008790F0008790F000840
:10008000790F0008790F0008790F0008790F000830
:10009000790F0008790F0008790F0008790F000820
:1000A000790F0008790F0008790F0008790F000810
:1000B000110F0008790F000800000000790F0008F8
:1000C000790F00080000000000000000790F000810
:1000D00000000000790F0008790F00080000000000
:1000E000790F0008790F0008790F00080000000060
:1000F0000000000000000000000000000000000000
:0C01000000000000000000005FF808F1A3
:10010C0010B5054C237833B9044B13B10448AFF345
:10011C0000800123237010BD54000020000000005B
:10012C00A825000808B5034B1BB103490348AFF3DE
:10013C00008008BD0000000058000020A825000821
:10014C0080B483B000AF7860094A7B6852F82330E2
:10015C00012B06D1064A7B68002142F823100123AB
:10016C0000E0002318460C37BD4680BC704700BF2A
:10017C007000002080B483B000AF7860044A7B68C4
:10018C00012142F8231000BF0C37BD4680BC7047DC
:10019C007000002080B500AF684B1B68684A136084
:1001AC00684B1B68654A13604FF40061664801F0A8
:1001BC00C9F903461A46634B1A60614B1A685F4BC8
:1001CC001B689A422DD15D4B1A685E4B1B689A4294
:1001DC0027D15E4B1A685B4B1B689A420ED0594B69
:1001EC001B685A4A1360574B1B68002B19D1584B8C
:1001FC00C8221A600020FFF7BDFF12E0544B1B68A9
:10020C00013B534A1360524B1B68002B09D14D4BD9
:10021C001B68002B02D10020FFF7ACFF4C4BC8220F
:10022C001A60464B5B68464A5360464B5B68434AD0
:10023C0053604FF48051444801F084F903461A4648
:10024C00404B5A603E4B5A683C4B5B689A422DD1EE
:10025C003A4B5A683B4B5B689A4227D13B4B5A68E6
:10026C00384B5B689A420ED0364B5B68374A53600A
:10027C00344B5B68002B19D1354BC8225A600120D6
:10028C00FFF778FF12E0324B5B68013B304A53605A
:10029C002F4B5B68002B09D12A4B5B68002B02D1DA
:1002AC000120FFF767FF2A4BC8225A60234B9B683B
:1002BC00234A9360234B9B68204A93604FF4005170
:1002CC00214801F03FF903461A461E4B9A601C4B1D
:1002DC009A681A4B9B689A422DD1184B9A68194B05
:1002EC009B689A4227D1194B9A68164B9B689A4285
:1002FC000ED0144B9B68154A9360124B9B68002BD5
:10030C0019D1134BC8229A600220FFF733FF12E079
:10031C000F4B9B68013B0E4A93600D4B9B68002B67
:10032C0009D1084B9B68002B02D10220FFF722FF5A
:10033C00074BC8229A6000BF80BD00BF0C00002094
:10034C0000000020180000200008014024000020BC
:10035C003000002080B500AFA74B1B68013B042B7D
:10036C0000F23F8101A252F823F000BF8D03000878
:10037C00B303000843040008D30400086105000817
:10038C0000F03AFB9C4B02221A609C4B1B686422C7
:10039C0002FB03F31946012000F0E8FC974B1B68A5
:1003AC00974A136026E101222021964801F0E1F8DA
:1003BC0000224021934801F0DCF801228021914871
:1003CC0001F0D7F800224FF480718E4801F0D1F87B
:1003DC0000224FF400718B4801F0CBF800224FF44F
:1003EC008061884801F0C5F8854B1B68184600F001
:1003FC0093FA854B5B68012B0FD17F4B03221A605C
:10040C00824B1B687E4A1360804B1B68642202FB84
:10041C0003F31946012000F0A9FC0120FFF790FE20
:10042C000346012B40F0DF80734B0D221A60784B92
:10043C0000221A60D7E001222021724801F099F8BD
:10044C00012240216F4801F094F8002280216D4870
:10045C0001F08FF800224FF480716A4801F089F89E
:10046C0000224FF40071674801F083F800224FF42A
:10047C008061644801F07DF8614B1B68184600F000
:10048C004BFA614B5B68012B0FD15B4B04221A605A
:10049C00604B1B685A4A13605E4B1B68642202FB5C
:1004AC0003F31946012000F061FC0120FFF748FE20
:1004BC000346012B40F099804F4B0D221A60544B90
:1004CC0000221A6091E0002220214E4801F051F8E0
:1004DC00002240214B4801F04CF800228021494871
:1004EC0001F047F801224FF48071464801F041F8C1
:1004FC0000224FF40071434801F03BF801224FF405
:10050C008061404801F035F83D4B1B68184600F0FF
:10051C0003FA3D4B5B68012B0FD1374B05221A6058
:10052C003A4B1B68364A1360384B1B68642202FB3B
:10053C0003F31946012000F019FC0120FFF700FE1F
:10054C000346012B53D12C4B0D221A60304B002249
:10055C001A604CE0002220212A4801F00AF80022FF
:10056C004021284801F005F800228021254801F09F
:10057C0000F801224FF48071224800F0FAFF0122AA
:10058C004FF400711F4800F0F4FF00224FF480611B
:10059C001C4800F0EEFF1A4B1B68184600F0BCF923
:1005AC00194B5B68012B0FD1134B02221A60134BB2
:1005BC001B68134A1360114B1B68642202FB03F384
:1005CC001946012000F0D2FB0120FFF7B9FD0346CC
:1005DC00012B0ED1084B0D221A600D4B00221A6014
:1005EC0007E000BF06E000BF04E000BF02E000BF70
:1005FC0000E000BF00BF80BD7C0000203C0000205C
:10060C0084000020000801409800002040000020D9
:10061C00800000204400002080B489B000AF7860D6
:10062C000023FB610023BB617B68182B52D07B68D5
:10063C00182B6FDC7B68162B2CD07B68172B69D1A1
:10064C003A4B1A683A4B1B681344FB61394B1A68D6
:10065C00FB69D31ABB61354B1A68BB691344334A27
:10066C001360324B1B68632B56DD304B1B68633BAE
:10067C003B612E4B63221A602D4B1A683B69134465
:10068C002B4A13602A4B1B68632B45DD284B6322D6
:10069C001A6041E0254B1A68254B1B681344254A08
:1006AC001360244B1B68632B38DD224B1B68633BA8
:1006BC00FB60204B63221A601D4B1A68FB68D31A2F
:1006CC001B4A13601A4B1B68002B27DA184B0022AD
:1006DC001A6023E0154B1A68154B1B681344154A16
:1006EC001360144B1B68632B1ADD124B1B68633BA6
:1006FC007B61104B63221A600C4B1A687B69D31A0E
:10070C000A4A1360094B1B68002B09DA074B0022BD
:10071C001A6005E000BF04E000BF02E000BF00E08B
:10072C0000BF00BF2437BD4680BC70473C00002092
:10073C00400000204400002080B500AF6F4B1B68C8
:10074C000E2B00F08F800E2B00F3CF800C2B02D0E1
:10075C000D2B44D0C9E06A4B9B68012B0CD1322184
:10076C00022000F003FB2021664800F01AFF4FF432
:10077C008071644800F015FF00224021614800F0B0
:10078C00F8FE002280215F4800F0F3FE5E4B1B68F0
:10079C00184600F0C1F80220FFF7D2FC0346012BEB
:1007AC000BD1594B1B680133574A1360564B1B68CE
:1007BC00632B02DD544B00221A600120FFF7C0FCB2
:1007CC000346012B40F093804F4B1B684F4A13603C
:1007DC001720FFF721FF494B0D221A6087E0484B89
:1007EC009B68012B0CD13221022000F0BFFA802132
:1007FC00444800F0D6FE4FF48061424800F0D1FE30
:10080C00012220213F4800F0B4FE002240213D4847
:10081C0000F0AFFE3C4B1B68184600F07DF8022040
:10082C00FFF78EFC0346012B0BD1374B1B680133B2
:10083C00354A1360344B1B68632B02DD324B0022AC
:10084C001A600120FFF77CFC0346012B51D12E4B83
:10085C001B682F4A13601620FFF7DEFE274B0E2273
:10086C001A6046E0264B9B68012B0CD132210220EA
:10087C0000F07CFA4021234800F093FE4FF4007105
:10088C00204800F08EFE012220211E4800F071FE4F
:10089C00002280211B4800F06CFE1B4B1B68184685
:1008AC0000F03AF80220FFF74BFC0346012B0BD16A
:1008BC00154B1B680133144A1360134B1B68632BD5
:1008CC0002DD114B00221A600120FFF739FC0346B0
:1008DC00012B10D10C4B1B680E4A13601820FFF72C
:1008EC009BFE064B01221A6005E000BF04E000BF2E
:1008FC0002E000BF00E000BF00BF80BD7C00002014
:10090C0098000020000801408000002044000020D6
:10091C003C0000204000002080B584B000AF78601F
:10092C007B68092B60DC324A7B6813441B78FB73B1
:10093C00FB7B03F00103002B0CBF01230023DBB274
:10094C001A4601212B4800F014FEFB7B03F0020336
:10095C00002B0CBF01230023DBB21A4602212548D1
:10096C0000F007FEFB7B03F00403002B0CBF0123FC
:10097C000023DBB21A4604211E4800F0FAFDFB7B73
:10098C0003F00803002B0CBF01230023DBB21A4633
:10099C000821184800F0EDFDFB7B03F01003002B41
:1009AC000CBF01230023DBB21A461021114800F0C2
:1009BC00E0FDFB7B03F02003002B0CBF0123002385
:1009CC00DBB21A4620210B4800F0D3FDFB7B03F071
:1009DC004003002B0CBF01230023DBB21A4640213D
:1009EC00044800F0C6FD00E000BF1037BD4680BDD6
:1009FC00C0250008000C014080B500AF002220216A
:100A0C00364800F0B6FD01224021344800F0B1FD1B
:100A1C0001228021314800F0ACFD00224FF480719E
:100A2C002E4800F0A6FD01224FF400712B4800F077
:100A3C00A0FD01224FF48061284800F09AFD0022AD
:100A4C000121274800F095FD00220221244800F0E6
:100A5C0090FD00220421224800F08BFD0022082189
:100A6C001F4800F086FD002210211D4800F081FD7A
:100A7C00002220211A4800F07CFD00224021184859
:100A8C0000F077FD00228021154800F072FD002255
:100A9C004FF48071124800F06CFD00224FF400718D
:100AAC000F4800F066FD00224FF480610C4800F006
:100ABC0060FD00224FF40061094800F05AFD00224D
:100ACC004FF48051064800F054FD00224FF40051C1
:100ADC00034800F04EFD00BF80BD00BF0008014080
:100AEC00000C014080B500AF00F042FA00F040F875
:100AFC0000F0C6F800F078F8154801F097F9154B9E
:100B0C0001221A60144B00221A60144B03221A6043
:100B1C00134B05221A60134B02221A606421002029
:100B2C0000F024F90121022000F020F9FFF712FC5B
:100B3C000D4B1B68012B07D110210C4800F031FD27
:100B4C006421002000F012F9FFF7F6FDEEE700BF7C
:100B5C00A80000207C000020840000203C00002025
:100B6C0044000020400000209800002000080140B4
:100B7C0080B590B000AF07F1180328220021184669
:100B8C0001F004FD3B1D00221A605A609A60DA6085
:100B9C001A610223BB610123BB621023FB62002399
:100BAC007B6307F11803184600F014FD0346002B75
:100BBC0001D000F0D5F80F237B600023BB6000232D
:100BCC00FB6000233B6100237B613B1D0021184629
:100BDC0000F080FF0346002B01D000F0C1F800BFED
:100BEC004037BD4680BD000080B586B000AF07F130
:100BFC00080300221A605A609A60DA603B460022B1
:100C0C001A605A601D4B4FF080421A601B4B41F624
:100C1C003F725A60194B00229A60184B0922DA6015
:100C2C00164B00221A61154B00229A61134801F0F1
:100C3C00ADF80346002B01D000F092F84FF480532E
:100C4C00BB6007F1080319460C4801F02BFA034668
:100C5C00002B01D000F084F800233B6000237B6064
:100C6C003B461946054801F003FC0346002B01D016
:100C7C0000F076F800BF1837BD4680BDA8000020F4
:100C8C0080B586B000AF07F1080300221A605A60E5
:100C9C009A60DA60294B9B69284A43F004039361FC
:100CAC00264B9B6903F004037B607B68234B9B6999
:100CBC00224A43F008039361204B9B6903F008031D
:100CCC003B603B68002241F6F0711D4800F051FC7E
:100CDC00002243F6FF711B4800F04BFC41F6F07309
:100CEC00BB600123FB6000233B6102237B6107F1A6
:100CFC0008031946124800F0ABFA43F6FF73BB60C9
:100D0C000123FB6000233B6102237B6107F1080395
:100D1C0019460C4800F09CFA4FF46043BB6000236A
:100D2C00FB6000233B6107F108031946044800F0FF
:100D3C008FFA00BF1837BD4680BD00BF00100240BF
:100D4C0000080140000C014080B582B000AF786013
:100D5C0000F02AF8FFF71EFA00BF0837BD4680BD29
:100D6C0080B400AF72B600BFFEE7000080B483B061
:100D7C0000AF786039607B68002B0CDB7B68032B41
:100D8C0009DC07497B683A6841F82320054A7B68EF
:100D9C00002142F8231000BF0C37BD4680BC7047C1
:100DAC00880000209800002080B483B000AF00239E
:100DBC007B601CE0124A7B6852F82330002B13DD59
:100DCC000F4A7B6852F823305A1E0D497B6841F854
:100DDC0023200B4A7B6852F82330002B04DC094A91
:100DEC007B68012142F823107B6801337B607B68B0
:100DFC00032BDFDD00BF00BF0C37BD4680BC704746
:100E0C00880000209800002080B485B000AF154BFE
:100E1C009B69144A43F001039361124B9B6903F0E5
:100E2C000103BB60BB680F4BDB690E4A43F0805378
:100E3C00D3610C4BDB6903F080537B607B680A4BFE
:100E4C005B68FB60FB6823F0E063FB60FB6843F0CE
:100E5C008063FB60044AFB68536000BF1437BD46D7
:100E6C0080BC7047001002400000014080B584B087
:100E7C0000AF78607B681B68B3F1804F13D10C4BCB
:100E8C00DB690B4A43F00103D361094BDB6903F0C7
:100E9C000103FB60FB68002200211C2000F0A1F97B
:100EAC001C2000F0BAF900BF1037BD4680BD00BF52
:100EBC000010024080B400AFFEE780B400AFFEE744
:100ECC0080B400AFFEE780B400AFFEE780B400AFA3
:100EDC00FEE780B400AF00BFBD4680BC704780B455
:100EEC0000AF00BFBD4680BC704780B400AF00BFF0
:100EFC00BD4680BC704780B500AF00F07FF800BFE6
:100F0C0080BD000080B500AF024800F0DBFF00BFE1
:100F1C0080BD00BFA800002080B400AF00BFBD465C
:100F2C0080BC7047FFF7F8FF0B480C490C4A0023B4
:100F3C0002E0D458C4500433C4188C42F9D3094A83
:100F4C00094C002301E013600432A242FBD301F0F0
:100F5C00F9FAFFF7C7FD704700000020540000208D
:100F6C00F825000854000020F4000020FEE70000E3
:100F7C0080B500AF084B1B68074A43F010031360A1
:100F8C00032000F023F90F2000F008F8FFF73CFFD6
:100F9C000023184680BD00BF0020024080B582B0FF
:100FAC0000AF7860124B1A68124B1B7819464FF43D
:100FBC007A73B3FBF1F3B2FBF3F3184600F03BF991
:100FCC000346002B01D001230EE07B680F2B0AD8BF
:100FDC00002279684FF0FF3000F003F9064A7B6875
:100FEC001360002300E0012318460837BD4680BD7E
:100FFC0048000020500000204C00002080B400AFBE
:10100C00054B1B781A46054B1B681344034A1360A7
:10101C0000BFBD4680BC704750000020F00000208F
:10102C0080B400AF024B1B681846BD4680BC7047AD
:10103C00F000002080B485B000AF78607B6803F0CE
:10104C000703FB600C4BDB68BB60BA684FF6FF0311
:10105C001340BB60FB681A02BB68134343F0BF63C9
:10106C0043F40033BB60044ABB68D36000BF143741
:10107C00BD4680BC704700BF00ED00E080B400AFFF
:10108C00044BDB681B0A03F007031846BD4680BC03
:10109C00704700BF00ED00E080B483B000AF0346A2
:1010AC00FB7197F90730002B0BDBFB7903F01F0268
:1010BC00064997F907305B09012000FA02F241F862
:1010CC00232000BF0C37BD4680BC704700E100E018
:1010DC0080B483B000AF03463960FB7197F90730D9
:1010EC00002B0ADB3B68DAB20C4997F90730120186
:1010FC00D2B20B4483F800230AE03B68DAB2084909
:10110C00FB7903F00F03043B1201D2B20B441A76A5
:10111C0000BF0C37BD4680BC704700BF00E100E04B
:10112C0000ED00E080B489B000AFF860B9607A607F
:10113C00FB6803F00703FB61FB69C3F10703042B96
:10114C0028BF0423BB61FB690433062B02D9FB695E
:10115C00033B00E000237B614FF0FF32BB6902FAD6
:10116C0003F3DA43BB681A407B699A404FF0FF31B6
:10117C007B6901FA03F3D9437B680B401343184690
:10118C002437BD4680BC704780B582B000AF786014
:10119C007B68013BB3F1807F01D301230FE00A4A46
:1011AC007B68013B53600F214FF0FF30FFF790FF3E
:1011BC00054B00229A60044B07221A600023184644
:1011CC000837BD4680BD00BF10E000E080B582B09E
:1011DC0000AF78607868FFF72DFF00BF0837BD4679
:1011EC0080BD80B586B000AF0346B9607A60FB73F2
:1011FC0000237B61FFF742FF78617A68B9687869F0
:10120C00FFF790FF024697F90F3011461846FFF78B
:10121C005FFF00BF1837BD4680BD80B582B000AF00
:10122C000346FB7197F907301846FFF735FF00BFEF
:10123C000837BD4680BD80B582B000AF7860786855
:10124C00FFF7A2FF034618460837BD4680BD0000D5
:10125C0080B48BB000AF7860396000237B620023D0
:10126C003B6248E101227B6A02FA03F3FB613B68B3
:10127C001B68FA691340BB61BA69FB699A4240F07A
:10128C0037813B685B68A34A93425ED0A14A934284
:10129C0075D8A14A934258D09F4A93426FD89F4A1F
:1012AC00934252D09D4A934269D89D4A93424CD066
:1012BC009B4A934263D89B4A934246D0994A9342A5
:1012CC005DD8122B2AD8122B59D801A252F823F030
:1012DC005713000831130008431300088513000846
:1012EC008B1300088B1300088B1300088B1300085A
:1012FC008B1300088B1300088B1300088B1300084A
:10130C008B1300088B1300088B1300088B13000839
:10131C008B130008391300084D130008824A9342BE
:10132C0013D02CE03B68DB683B6229E03B68DB6850
:10133C0004333B6224E03B68DB6808333B621FE00C
:10134C003B68DB680C333B621AE03B689B68002B04
:10135C0002D104233B6213E03B689B68012B05D14F
:10136C0008233B627B68FA691A6109E008233B6237
:10137C007B68FA695A6103E000233B6200E000BF1E
:10138C00BB69FF2B01D87B6801E07B6804337B6170
:10139C00BB69FF2B02D87B6A9B0002E07B6A083B8F
:1013AC009B003B617B691A680F213B6901FA03F3CF
:1013BC00DB431A40396A3B6901FA03F31A437B6930
:1013CC001A603B685B6803F08053002B00F0908040
:1013DC00564B9B69554A43F001039361534B9B69F0
:1013EC0003F00103BB60BB68514A7B6A9B08023364
:1013FC0052F82330FB607B6A03F003039B000F223F
:10140C0002FA03F3DB43FA681340FB607B68494A3A
:10141C0093420DD07B68484A934207D07B68474A79
:10142C00934201D1022304E0032302E0012300E0F4
:10143C0000237A6A02F0030292009340FA68134385
:10144C00FB603B497B6A9B080233FA6841F8232016
:10145C003B685B6803F48013002B06D0384B9A680A
:10146C003749BB6913438B6006E0354B9A68BB69FF
:10147C00DB43334913408B603B685B6803F4001318
:10148C00002B06D02E4BDA682D49BB691343CB6079
:10149C0006E02B4BDA68BB69DB4329491340CB6070
:1014AC003B685B6803F40033002B06D0244B5A686E
:1014BC002349BB6913434B6006E0214B5A68BB6957
:1014CC00DB431F4913404B603B685B6803F480337C
:1014DC00002B06D01A4B1A681949BB6913430B60D1
:1014EC0006E0174B1A68BB69DB43154913400B60C8
:1014FC007B6A01337B623B681A687B6A22FA03F3CE
:10150C00002B7FF4AFAE00BF00BF2C37BD4680BCB4
:10151C00704700BF00003210000031100000221094
:10152C0000002110000012100000111000100240E9
:10153C000000014000080140000C01400010014077
:10154C000004014080B485B000AF78600B467B800E
:10155C007B689A687B881340002B02D00123FB73B5
:10156C0001E00023FB73FB7B18461437BD4680BC9F
:10157C00704780B483B000AF78600B467B80134615
:10158C007B707B78002B03D07A887B681A6103E030
:10159C007B881A047B681A6100BF0C37BD4680BC7F
:1015AC00704780B485B000AF78600B467B807B6859
:1015BC00DB68FB607A88FB6813401A04FB68D9432C
:1015CC007B880B401A437B681A6100BF1437BD46F9
:1015DC0080BC704780B586B000AF78607B68002B0C
:1015EC0001D101236CE27B681B6803F00103002B23
:1015FC0000F08780924B5B6803F00C03042B0CD03B
:10160C008F4B5B6803F00C03082B12D18C4B5B687F
:10161C0003F48033B3F5803F0BD1894B1B6803F483
:10162C000033002B6CD07B685B68002B68D10123E6
:10163C0046E27B685B68B3F5803F06D1804B1B6844
:10164C007F4A43F4803313602EE07B685B68002B89
:10165C000CD17B4B1B687A4A23F480331360784B94
:10166C001B68774A23F4802313601DE07B685B685A
:10167C00B3F5A02F0CD1724B1B68714A43F4802335
:10168C0013606F4B1B686E4A43F4803313600BE09E
:10169C006B4B1B686A4A23F480331360684B1B68DE
:1016AC00674A23F4802313607B685B68002B13D09C
:1016BC00FFF7B6FC386108E0FFF7B2FC02463B6965
:1016CC00D31A642B01D90323FAE15D4B1B6803F495
:1016DC000033002BF0D014E0FFF7A2FC386108E0D7
:1016EC00FFF79EFC02463B69D31A642B01D90323F6
:1016FC00E6E1534B1B6803F40033002BF0D100E000
:10170C0000BF7B681B6803F00203002B63D04C4BBB
:10171C005B6803F00C03002B0BD0494B5B6803F0A8
:10172C000C03082B1CD1464B5B6803F48033002B55
:10173C0016D1434B1B6803F00203002B05D07B68CA
:10174C001B69012B01D00123BAE13D4B1B6823F02F
:10175C00F8027B685B69DB00394913430B603AE0A4
:10176C007B681B69002B20D0364B01221A60FFF7D7
:10177C0057FC386108E0FFF753FC02463B69D31A6B
:10178C00022B01D903239BE12D4B1B6803F00203B1
:10179C00002BF0D02A4B1B6823F0F8027B685B69A6
:1017AC00DB00274913430B6015E0264B00221A601F
:1017BC00FFF736FC386108E0FFF732FC02463B6964
:1017CC00D31A022B01D903237AE11D4B1B6803F0BA
:1017DC000203002BF0D17B681B6803F00803002B7D
:1017EC003AD07B689B69002B19D0174B01221A60E9
:1017FC00FFF716FC386108E0FFF712FC02463B6964
:10180C00D31A022B01D903235AE10D4B5B6A03F067
:10181C000203002BF0D0012000F09AFA1CE00A4BD6
:10182C0000221A60FFF7FCFB38610FE0FFF7F8FBB2
:10183C0002463B69D31A022B08D9032340E100BFAF
:10184C000010024000004242800442429E4B5B6A00
:10185C0003F00203002BE9D17B681B6803F004033F
:10186C00002B00F0A6800023FB75974BDB6903F07F
:10187C008053002B0DD1944BDB69934A43F080537A
:10188C00D361914BDB6903F08053BB60BB680123D0
:10189C00FB758E4B1B6803F48073002B18D18B4B9C
:1018AC001B688A4A43F480731360FFF7B9FB3861F5
:1018BC0008E0FFF7B5FB02463B69D31A642B01D94C
:1018CC000323FDE0814B1B6803F48073002BF0D0E5
:1018DC007B68DB68012B06D17B4B1B6A7A4A43F091
:1018EC00010313622DE07B68DB68002B0CD1764B77
:1018FC001B6A754A23F001031362734B1B6A724A0D
:10190C0023F0040313621CE07B68DB68052B0CD10D
:10191C006D4B1B6A6C4A43F0040313626A4B1B6ADF
:10192C00694A43F0010313620BE0674B1B6A664A7A
:10193C0023F001031362644B1B6A634A23F0040314
:10194C0013627B68DB68002B15D0FFF769FB3861ED
:10195C000AE0FFF765FB02463B69D31A41F2883275
:10196C00934201D90323ABE0574B1B6A03F00203EC
:10197C00002BEED014E0FFF753FB38610AE0FFF7C1
:10198C004FFB02463B69D31A41F28832934201D98C
:10199C00032395E04C4B1B6A03F00203002BEED1A2
:1019AC00FB7D012B05D1484BDB69474A23F0805363
:1019BC00D3617B68DB69002B00F08180424B5B6854
:1019CC0003F00C03082B61D07B68DB69022B46D13A
:1019DC003F4B00221A60FFF723FB386108E0FFF74A
:1019EC001FFB02463B69D31A022B01D9032367E084
:1019FC00354B1B6803F00073002BF0D17B681B6A1E
:101A0C00B3F5803F08D1304B5B6823F400327B6820
:101A1C009B682D4913434B602B4B5B6823F474126A
:101A2C007B68196A7B685B6A0B43274913434B60DD
:101A3C00274B01221A60FFF7F3FA386108E0FFF731
:101A4C00EFFA02463B69D31A022B01D9032337E084
:101A5C001D4B1B6803F00073002BF0D02FE01C4BC8
:101A6C0000221A60FFF7DCFA386108E0FFF7D8FAB9
:101A7C0002463B69D31A022B01D9032320E0124BF7
:101A8C001B6803F00073002BF0D118E07B68DB6956
:101A9C00012B01D1012313E00B4B5B68FB60FB684E
:101AAC0003F480327B681B6A9A4206D1FB6803F40C
:101ABC0070127B685B6A9A4201D0012300E000231C
:101ACC0018461837BD4680BD00100240007000401B
:101ADC006000424280B584B000AF786039607B68AA
:101AEC00002B01D10123D0E06A4B1B6803F00703E4
:101AFC003A689A4210D9674B1B6823F00702654974
:101B0C003B6813430B60634B1B6803F007033A6895
:101B1C009A4201D00123B8E07B681B6803F00203F2
:101B2C00002B20D07B681B6803F00403002B05D02E
:101B3C00594B5B68584A43F4E06353607B681B68FD
:101B4C0003F00803002B05D0534B5B68524A43F457
:101B5C0060535360504B5B6823F0F0027B689B68CA
:101B6C004D4913434B607B681B6803F00103002B4A
:101B7C0040D07B685B68012B07D1474B1B6803F493
:101B8C000033002B15D101237FE07B685B68022BAF
:101B9C0007D1414B1B6803F00073002B09D10123C3
:101BAC0073E03D4B1B6803F00203002B01D10123B2
:101BBC006BE0394B5B6823F003027B685B6836494A
:101BCC0013434B60FFF72CFAF8600AE0FFF728FA92
:101BDC000246FB68D31A41F28832934201D903239F
:101BEC0053E02D4B5B6803F00C027B685B689B0039
:101BFC009A42EBD1274B1B6803F007033A689A42D1
:101C0C0010D2244B1B6823F0070222493B68134374
:101C1C000B60204B1B6803F007033A689A4201D013
:101C2C00012332E07B681B6803F00403002B08D00F
:101C3C00194B5B6823F4E0627B68DB68164913433D
:101C4C004B607B681B6803F00803002B09D0124B18
:101C5C005B6823F460527B681B69DB000E491343FD
:101C6C004B6000F021F802460B4B5B681B0903F03C
:101C7C000F030A49CB5C22FA03F3094A1360094BA0
:101C8C001B681846FFF78AF9002318461037BD4623
:101C9C0080BD00BF0020024000100240CC2500088F
:101CAC00480000204C00002080B487B000AF002317
:101CBC00FB600023BB6000237B6100237B6000235F
:101CCC003B611E4B5B68FB60FB6803F00C03042B51
:101CDC0002D0082B03D027E0194B3B6127E0FB68AF
:101CEC009B0C03F00F03174AD35C7B60FB6803F477
:101CFC008033002B10D0114B5B685B0C03F001039D
:101D0C00114AD35CBB607B680D4A02FB03F2BB68D3
:101D1C00B2FBF3F37B6104E07B680C4A02FB03F338
:101D2C007B617B693B6102E0054B3B6100BF3B691A
:101D3C0018461C37BD4680BC704700BF00100240DF
:101D4C0000127A00DC250008EC25000800093D0093
:101D5C0080B485B000AF78600A4B1B680A4AA2FBBE
:101D6C0003235B0A7A6802FB03F3FB6000BFFB688A
:101D7C005A1EFA60002BF9D100BF00BF1437BD46C4
:101D8C0080BC704748000020D34D621080B582B0F3
:101D9C0000AF78607B68002B01D1012341E07B68A8
:101DAC0093F83D30DBB2002B06D17B68002283F820
:101DBC003C207868FFF75AF87B68022283F83D20B4
:101DCC007B681A687B6804331946104600F056FA93
:101DDC007B68012283F846207B68012283F83E2031
:101DEC007B68012283F83F207B68012283F8402026
:101DFC007B68012283F841207B68012283F8422012
:101E0C007B68012283F843207B68012283F84420FD
:101E1C007B68012283F845207B68012283F83D20F2
:101E2C00002318460837BD4680BD000080B485B03D
:101E3C0000AF78607B6893F83D30DBB2012B01D0AA
:101E4C00012335E07B68022283F83D207B681B6808
:101E5C00DA687B681B6842F00102DA607B681B68F9
:101E6C00164A934209D07B681B68B3F1804F04D0AB
:101E7C007B681B68124A934211D17B681B689B6874
:101E8C0003F00703FB60FB68062B10D07B681B6814
:101E9C001A687B681B6842F001021A6007E07B68D5
:101EAC001B681A687B681B6842F001021A600023E9
:101EBC0018461437BD4680BC704700BF002C01404B
:101ECC000004004080B584B000AF78607B681B686C
:101EDC00DB68FB607B681B681B69BB60BB6803F03D
:101EEC000203002B20D0FB6803F00203002B1BD055
:101EFC007B681B686FF002021A617B6801221A77FB
:101F0C007B681B689B6903F00303002B03D0786884
:101F1C0000F098F905E0786800F08BF9786800F02B
:101F2C009AF97B6800221A77BB6803F00403002B34
:101F3C0020D0FB6803F00403002B1BD07B681B68CC
:101F4C006FF004021A617B6802221A777B681B68A7
:101F5C009B6903F44073002B03D0786800F072F98E
:101F6C0005E0786800F065F9786800F074F97B6832
:101F7C0000221A77BB6803F00803002B20D0FB6803
:101F8C0003F00803002B1BD07B681B686FF0080262
:101F9C001A617B6804221A777B681B68DB6903F083
:101FAC000303002B03D0786800F04CF905E0786847
:101FBC0000F03FF9786800F04EF97B6800221A7740
:101FCC00BB6803F01003002B20D0FB6803F0100358
:101FDC00002B1BD07B681B686FF010021A617B68AA
:101FEC0008221A777B681B68DB6903F44073002BAB
:101FFC0003D0786800F026F905E0786800F019F94C
:10200C00786800F028F97B6800221A77BB6803F027
:10201C000103002B0CD0FB6803F00103002B07D04D
:10202C007B681B686FF001021A617868FEF78CFE02
:10203C00BB6803F08003002B0CD0FB6803F080031B
:10204C00002B07D07B681B686FF080021A617868E0
:10205C0000F06FFABB6803F04003002B0CD0FB6858
:10206C0003F04003002B07D07B681B686FF0400225
:10207C001A61786800F0F8F8BB6803F02003002BB5
:10208C000CD0FB6803F02003002B07D07B681B6887
:10209C006FF020021A61786800F042FA00BF103726
:1020AC00BD4680BD80B584B000AF78603960002338
:1020BC00FB737B6893F83C30012B01D10223B4E015
:1020CC007B68012283F83C207B68022283F83D2048
:1020DC007B681B689B68BB60BB6823F07703BB60A5
:1020EC00BB6823F47F43BB607B681B68BA689A604B
:1020FC003B681B68B3F5005F3ED0B3F5005F00F2A0
:10210C008780B3F5805F00F08680B3F5805F7FD861
:10211C00702B1AD0702B7BD8602B50D0602B77D8BB
:10212C00502B3CD0502B73D8402B58D0402B6FD811
:10213C00302B64D0302B6BD8202B60D0202B67D861
:10214C00002B5CD0102B5AD062E07B6818683B687F
:10215C0099683B685A683B68DB6800F06AF97B68F1
:10216C001B689B68BB60BB6843F07703BB607B68F4
:10217C001B68BA689A604FE07B6818683B6899687E
:10218C003B685A683B68DB6800F053F97B681B6856
:10219C009A687B681B6842F480429A603CE07B68DA
:1021AC0018683B6859683B68DB681A4600F0CAF847
:1021BC007B681B685021184600F021F92CE07B68E5
:1021CC0018683B6859683B68DB681A4600F0E8F809
:1021DC007B681B686021184600F011F91CE07B68D5
:1021EC0018683B6859683B68DB681A4600F0AAF827
:1021FC007B681B684021184600F001F90CE07B68F5
:10220C001A683B681B681946104600F0F8F803E0A2
:10221C000123FB7300E000BF7B68012283F83D20A3
:10222C007B68002283F83C20FB7B18461037BD46A8
:10223C0080BD80B483B000AF786000BF0C37BD4662
:10224C0080BC704780B483B000AF786000BF0C379F
:10225C00BD4680BC704780B483B000AF786000BFCF
:10226C000C37BD4680BC704780B483B000AF78603B
:10227C0000BF0C37BD4680BC7047000080B485B0F1
:10228C0000AF786039607B681B68FB607B682B4A09
:10229C00934207D07B68B3F1804F03D07B68284A08
:1022AC00934208D1FB6823F07003FB603B685B68CA
:1022BC00FA681343FB607B68204A934207D07B6823
:1022CC00B3F1804F03D07B681D4A934208D1FB6861
:1022DC0023F44073FB603B68DB68FA681343FB60D4
:1022EC00FB6823F080023B685B691343FB607B68EF
:1022FC00FA681A603B689A687B68DA623B681A680D
:10230C007B689A627B680D4A934203D13B681A69D9
:10231C007B681A637B6801225A617B681B6903F036
:10232C000103002B05D07B681B6923F001027B683D
:10233C001A6100BF1437BD4680BC7047002C0140A9
:10234C000004004080B487B000AFF860B9607A60D8
:10235C00FB681B6A7B61FB681B6A23F00102FB684C
:10236C001A62FB689B693B613B6923F0F0033B619C
:10237C007B681B013A6913433B617B6923F00A03B9
:10238C007B617A69BB6813437B61FB683A699A612C
:10239C00FB687A691A6200BF1C37BD4680BC704767
:1023AC0080B487B000AFF860B9607A60FB681B6AD4
:1023BC007B61FB681B6A23F01002FB681A62FB68E6
:1023CC009B693B613B6923F470433B617B681B0356
:1023DC003A6913433B617B6923F0A0037B61BB68C3
:1023EC001B017A6913437B61FB683A699A61FB684C
:1023FC007A691A6200BF1C37BD4680BC704780B436
:10240C0085B000AF786039607B689B68FB60FB68C7
:10241C0023F07003FB603A68FB68134343F0070337
:10242C00FB607B68FA689A6000BF1437BD4680BCBD
:10243C00704780B487B000AFF860B9607A603B60D9
:10244C00FB689B687B617B6923F47F437B613B6802
:10245C001A027B681A43BB6813437A6913437B6186
:10246C00FB687A699A6000BF1C37BD4680BC704718
:10247C0080B485B000AF786039607B6893F83C30ED
:10248C00012B01D1022341E07B68012283F83C201F
:10249C007B68022283F83D207B681B685B68FB60CD
:1024AC007B681B689B68BB60FB6823F07003FB6058
:1024BC003B681B68FA681343FB607B681B68FA680F
:1024CC005A607B681B68144A934209D07B681B686E
:1024DC00B3F1804F04D07B681B68104A93420CD137
:1024EC00BB6823F08003BB603B685B68BA6813432E
:1024FC00BB607B681B68BA689A607B68012283F8B2
:10250C003D207B68002283F83C20002318461437BA
:10251C00BD4680BC704700BF002C01400004004049
:10252C0080B483B000AF786000BF0C37BD4680BC70
:10253C00704780B483B000AF786000BF0C37BD46E5
:10254C0080BC704770B500260C4D0D4C641BA4105C
:10255C00A64209D100F022F800260A4D0A4C641B51
:10256C00A410A64205D170BD55F8043B984701361E
:10257C00EEE755F8043B98470136F2E7F0250008E2
:10258C00F0250008F0250008F42500080346024455
:10259C00934200D1704703F8011BF9E7F8B500BF6F
:1025AC00F8BC08BC9E467047F8B500BFF8BC08BC28
:0425BC009E46704780
:1025C0003F065B4F666D7D077F6F000000000000D7
:1025D00000000000010203040607080902030405C5
:1025E000060708090A0B0C0D0E0F1010010200005F
:0425F00031010008AD
:0425F4000D010008CD
:1025F80001000000000000000000000001000000D1
:1026080000000000000000000100000000000000C1
:1026180000000000010000000000000000000000B1
:10262800C8000000C8000000C80000000300000047
:10263800020000000500000000127A0010000000EF
:04264800010000008D
:0400000508000F31AF
:00000001FF
